{"abi":[{"inputs":[{"internalType":"uint256","name":"minimumContribution","type":"uint256"}],"name":"createCampaign","outputs":[],"stateMutability":"nonpayable","type":"function"},{"inputs":[],"name":"getDeployedCampaigns","outputs":[{"internalType":"address payable[]","name":"","type":"address[]"}],"stateMutability":"view","type":"function"}],"devdoc":{"kind":"dev","methods":{},"version":1},"evm":{"assembly":"    /* \"Campaign.sol\":57:523  contract CampaignFactory {... */\n  mstore(0x40, 0x80)\n  callvalue\n  dup1\n  iszero\n  tag_1\n  jumpi\n  0x00\n  dup1\n  revert\ntag_1:\n  pop\n  dataSize(sub_0)\n  dup1\n  dataOffset(sub_0)\n  0x00\n  codecopy\n  0x00\n  return\nstop\n\nsub_0: assembly {\n        /* \"Campaign.sol\":57:523  contract CampaignFactory {... */\n      mstore(0x40, 0x80)\n      callvalue\n      dup1\n      iszero\n      tag_1\n      jumpi\n      0x00\n      dup1\n      revert\n    tag_1:\n      pop\n      jumpi(tag_2, lt(calldatasize, 0x04))\n      shr(0xe0, calldataload(0x00))\n      dup1\n      0x4acb9d4f\n      eq\n      tag_3\n      jumpi\n      dup1\n      0xa3303a75\n      eq\n      tag_4\n      jumpi\n    tag_2:\n      0x00\n      dup1\n      revert\n        /* \"Campaign.sol\":400:521  function getDeployedCampaigns() public view returns (address payable[] memory)  {... */\n    tag_3:\n      tag_5\n      tag_6\n      jump\t// in\n    tag_5:\n      mload(0x40)\n      tag_7\n      swap2\n      swap1\n      tag_8\n      jump\t// in\n    tag_7:\n      mload(0x40)\n      dup1\n      swap2\n      sub\n      swap1\n      return\n        /* \"Campaign.sol\":130:394  function createCampaign(uint minimumContribution) public {... */\n    tag_4:\n      tag_9\n      0x04\n      dup1\n      calldatasize\n      sub\n      dup2\n      add\n      swap1\n      tag_10\n      swap2\n      swap1\n      tag_11\n      jump\t// in\n    tag_10:\n      tag_12\n      jump\t// in\n    tag_9:\n      stop\n        /* \"Campaign.sol\":400:521  function getDeployedCampaigns() public view returns (address payable[] memory)  {... */\n    tag_6:\n        /* \"Campaign.sol\":453:477  address payable[] memory */\n      0x60\n        /* \"Campaign.sol\":497:514  deployedCampaigns */\n      0x00\n        /* \"Campaign.sol\":490:514  return deployedCampaigns */\n      dup1\n      sload\n      dup1\n      0x20\n      mul\n      0x20\n      add\n      mload(0x40)\n      swap1\n      dup2\n      add\n      0x40\n      mstore\n      dup1\n      swap3\n      swap2\n      swap1\n      dup2\n      dup2\n      mstore\n      0x20\n      add\n      dup3\n      dup1\n      sload\n      dup1\n      iszero\n      tag_14\n      jumpi\n      0x20\n      mul\n      dup3\n      add\n      swap2\n      swap1\n      0x00\n      mstore\n      keccak256(0x00, 0x20)\n      swap1\n    tag_15:\n      dup2\n      0x00\n      swap1\n      sload\n      swap1\n      0x0100\n      exp\n      swap1\n      div\n      0xffffffffffffffffffffffffffffffffffffffff\n      and\n      0xffffffffffffffffffffffffffffffffffffffff\n      and\n      dup2\n      mstore\n      0x20\n      add\n      swap1\n      0x01\n      add\n      swap1\n      dup1\n      dup4\n      gt\n      tag_15\n      jumpi\n    tag_14:\n      pop\n      pop\n      pop\n      pop\n      pop\n      swap1\n      pop\n        /* \"Campaign.sol\":400:521  function getDeployedCampaigns() public view returns (address payable[] memory)  {... */\n      swap1\n      jump\t// out\n        /* \"Campaign.sol\":130:394  function createCampaign(uint minimumContribution) public {... */\n    tag_12:\n        /* \"Campaign.sol\":257:276  address newCampaign */\n      0x00\n        /* \"Campaign.sol\":300:319  minimumContribution */\n      dup2\n        /* \"Campaign.sol\":321:331  msg.sender */\n      caller\n        /* \"Campaign.sol\":287:332  new Campaign(minimumContribution, msg.sender) */\n      mload(0x40)\n      tag_17\n      swap1\n      tag_18\n      jump\t// in\n    tag_17:\n      tag_19\n      swap3\n      swap2\n      swap1\n      tag_20\n      jump\t// in\n    tag_19:\n      mload(0x40)\n      dup1\n      swap2\n      sub\n      swap1\n      0x00\n      create\n      dup1\n      iszero\n      dup1\n      iszero\n      tag_21\n      jumpi\n      returndatasize\n      0x00\n      dup1\n      returndatacopy\n      revert(0x00, returndatasize)\n    tag_21:\n      pop\n        /* \"Campaign.sol\":257:333  address newCampaign = address(new Campaign(minimumContribution, msg.sender)) */\n      swap1\n      pop\n        /* \"Campaign.sol\":343:360  deployedCampaigns */\n      0x00\n        /* \"Campaign.sol\":374:385  newCampaign */\n      dup2\n        /* \"Campaign.sol\":343:387  deployedCampaigns.push(payable(newCampaign)) */\n      swap1\n      dup1\n      0x01\n      dup2\n      sload\n      add\n      dup1\n      dup3\n      sstore\n      dup1\n      swap2\n      pop\n      pop\n      0x01\n      swap1\n      sub\n      swap1\n      0x00\n      mstore\n      keccak256(0x00, 0x20)\n      add\n      0x00\n      swap1\n      swap2\n      swap1\n      swap2\n      swap1\n      swap2\n      0x0100\n      exp\n      dup2\n      sload\n      dup2\n      0xffffffffffffffffffffffffffffffffffffffff\n      mul\n      not\n      and\n      swap1\n      dup4\n      0xffffffffffffffffffffffffffffffffffffffff\n      and\n      mul\n      or\n      swap1\n      sstore\n      pop\n        /* \"Campaign.sol\":187:394  {... */\n      pop\n        /* \"Campaign.sol\":130:394  function createCampaign(uint minimumContribution) public {... */\n      pop\n      jump\t// out\n    tag_18:\n      dataSize(sub_0)\n      dup1\n      dataOffset(sub_0)\n      dup4\n      codecopy\n      add\n      swap1\n      jump\t// out\n        /* \"#utility.yul\":7:129   */\n    tag_23:\n        /* \"#utility.yul\":82:88   */\n      0x00\n        /* \"#utility.yul\":116:121   */\n      dup2\n        /* \"#utility.yul\":110:122   */\n      mload\n        /* \"#utility.yul\":100:122   */\n      swap1\n      pop\n        /* \"#utility.yul\":7:129   */\n      swap2\n      swap1\n      pop\n      jump\t// out\n        /* \"#utility.yul\":135:327   */\n    tag_24:\n        /* \"#utility.yul\":242:253   */\n      0x00\n        /* \"#utility.yul\":276:282   */\n      dup3\n        /* \"#utility.yul\":271:274   */\n      dup3\n        /* \"#utility.yul\":264:283   */\n      mstore\n        /* \"#utility.yul\":316:320   */\n      0x20\n        /* \"#utility.yul\":311:314   */\n      dup3\n        /* \"#utility.yul\":307:321   */\n      add\n        /* \"#utility.yul\":292:321   */\n      swap1\n      pop\n        /* \"#utility.yul\":135:327   */\n      swap3\n      swap2\n      pop\n      pop\n      jump\t// out\n        /* \"#utility.yul\":333:473   */\n    tag_25:\n        /* \"#utility.yul\":408:412   */\n      0x00\n        /* \"#utility.yul\":431:434   */\n      dup2\n        /* \"#utility.yul\":423:434   */\n      swap1\n      pop\n        /* \"#utility.yul\":461:465   */\n      0x20\n        /* \"#utility.yul\":456:459   */\n      dup3\n        /* \"#utility.yul\":452:466   */\n      add\n        /* \"#utility.yul\":444:466   */\n      swap1\n      pop\n        /* \"#utility.yul\":333:473   */\n      swap2\n      swap1\n      pop\n      jump\t// out\n        /* \"#utility.yul\":479:605   */\n    tag_26:\n        /* \"#utility.yul\":516:523   */\n      0x00\n        /* \"#utility.yul\":556:598   */\n      0xffffffffffffffffffffffffffffffffffffffff\n        /* \"#utility.yul\":549:554   */\n      dup3\n        /* \"#utility.yul\":545:599   */\n      and\n        /* \"#utility.yul\":534:599   */\n      swap1\n      pop\n        /* \"#utility.yul\":479:605   */\n      swap2\n      swap1\n      pop\n      jump\t// out\n        /* \"#utility.yul\":611:715   */\n    tag_27:\n        /* \"#utility.yul\":656:663   */\n      0x00\n        /* \"#utility.yul\":685:709   */\n      tag_47\n        /* \"#utility.yul\":703:708   */\n      dup3\n        /* \"#utility.yul\":685:709   */\n      tag_26\n      jump\t// in\n    tag_47:\n        /* \"#utility.yul\":674:709   */\n      swap1\n      pop\n        /* \"#utility.yul\":611:715   */\n      swap2\n      swap1\n      pop\n      jump\t// out\n        /* \"#utility.yul\":721:853   */\n    tag_28:\n        /* \"#utility.yul\":814:846   */\n      tag_49\n        /* \"#utility.yul\":840:845   */\n      dup2\n        /* \"#utility.yul\":814:846   */\n      tag_27\n      jump\t// in\n    tag_49:\n        /* \"#utility.yul\":809:812   */\n      dup3\n        /* \"#utility.yul\":802:847   */\n      mstore\n        /* \"#utility.yul\":721:853   */\n      pop\n      pop\n      jump\t// out\n        /* \"#utility.yul\":859:1070   */\n    tag_29:\n        /* \"#utility.yul\":944:954   */\n      0x00\n        /* \"#utility.yul\":965:1027   */\n      tag_51\n        /* \"#utility.yul\":1023:1026   */\n      dup4\n        /* \"#utility.yul\":1015:1021   */\n      dup4\n        /* \"#utility.yul\":965:1027   */\n      tag_28\n      jump\t// in\n    tag_51:\n        /* \"#utility.yul\":1059:1063   */\n      0x20\n        /* \"#utility.yul\":1054:1057   */\n      dup4\n        /* \"#utility.yul\":1050:1064   */\n      add\n        /* \"#utility.yul\":1036:1064   */\n      swap1\n      pop\n        /* \"#utility.yul\":859:1070   */\n      swap3\n      swap2\n      pop\n      pop\n      jump\t// out\n        /* \"#utility.yul\":1076:1197   */\n    tag_30:\n        /* \"#utility.yul\":1154:1158   */\n      0x00\n        /* \"#utility.yul\":1186:1190   */\n      0x20\n        /* \"#utility.yul\":1181:1184   */\n      dup3\n        /* \"#utility.yul\":1177:1191   */\n      add\n        /* \"#utility.yul\":1169:1191   */\n      swap1\n      pop\n        /* \"#utility.yul\":1076:1197   */\n      swap2\n      swap1\n      pop\n      jump\t// out\n        /* \"#utility.yul\":1249:2045   */\n    tag_31:\n        /* \"#utility.yul\":1384:1387   */\n      0x00\n        /* \"#utility.yul\":1413:1475   */\n      tag_54\n        /* \"#utility.yul\":1469:1474   */\n      dup3\n        /* \"#utility.yul\":1413:1475   */\n      tag_23\n      jump\t// in\n    tag_54:\n        /* \"#utility.yul\":1491:1585   */\n      tag_55\n        /* \"#utility.yul\":1578:1584   */\n      dup2\n        /* \"#utility.yul\":1573:1576   */\n      dup6\n        /* \"#utility.yul\":1491:1585   */\n      tag_24\n      jump\t// in\n    tag_55:\n        /* \"#utility.yul\":1484:1585   */\n      swap4\n      pop\n        /* \"#utility.yul\":1609:1673   */\n      tag_56\n        /* \"#utility.yul\":1667:1672   */\n      dup4\n        /* \"#utility.yul\":1609:1673   */\n      tag_25\n      jump\t// in\n    tag_56:\n        /* \"#utility.yul\":1696:1703   */\n      dup1\n        /* \"#utility.yul\":1727:1728   */\n      0x00\n        /* \"#utility.yul\":1712:2020   */\n    tag_57:\n        /* \"#utility.yul\":1737:1743   */\n      dup4\n        /* \"#utility.yul\":1734:1735   */\n      dup2\n        /* \"#utility.yul\":1731:1744   */\n      lt\n        /* \"#utility.yul\":1712:2020   */\n      iszero\n      tag_59\n      jumpi\n        /* \"#utility.yul\":1813:1819   */\n      dup2\n        /* \"#utility.yul\":1807:1820   */\n      mload\n        /* \"#utility.yul\":1840:1919   */\n      tag_60\n        /* \"#utility.yul\":1915:1918   */\n      dup9\n        /* \"#utility.yul\":1900:1913   */\n      dup3\n        /* \"#utility.yul\":1840:1919   */\n      tag_29\n      jump\t// in\n    tag_60:\n        /* \"#utility.yul\":1833:1919   */\n      swap8\n      pop\n        /* \"#utility.yul\":1942:2010   */\n      tag_61\n        /* \"#utility.yul\":2003:2009   */\n      dup4\n        /* \"#utility.yul\":1942:2010   */\n      tag_30\n      jump\t// in\n    tag_61:\n        /* \"#utility.yul\":1932:2010   */\n      swap3\n      pop\n        /* \"#utility.yul\":1772:2020   */\n      pop\n        /* \"#utility.yul\":1759:1760   */\n      0x01\n        /* \"#utility.yul\":1756:1757   */\n      dup2\n        /* \"#utility.yul\":1752:1761   */\n      add\n        /* \"#utility.yul\":1747:1761   */\n      swap1\n      pop\n        /* \"#utility.yul\":1712:2020   */\n      jump(tag_57)\n    tag_59:\n        /* \"#utility.yul\":1716:1730   */\n      pop\n        /* \"#utility.yul\":2036:2039   */\n      dup6\n        /* \"#utility.yul\":2029:2039   */\n      swap4\n      pop\n        /* \"#utility.yul\":1389:2045   */\n      pop\n      pop\n      pop\n        /* \"#utility.yul\":1249:2045   */\n      swap3\n      swap2\n      pop\n      pop\n      jump\t// out\n        /* \"#utility.yul\":2051:2456   */\n    tag_8:\n        /* \"#utility.yul\":2210:2214   */\n      0x00\n        /* \"#utility.yul\":2248:2250   */\n      0x20\n        /* \"#utility.yul\":2237:2246   */\n      dup3\n        /* \"#utility.yul\":2233:2251   */\n      add\n        /* \"#utility.yul\":2225:2251   */\n      swap1\n      pop\n        /* \"#utility.yul\":2297:2306   */\n      dup2\n        /* \"#utility.yul\":2291:2295   */\n      dup2\n        /* \"#utility.yul\":2287:2307   */\n      sub\n        /* \"#utility.yul\":2283:2284   */\n      0x00\n        /* \"#utility.yul\":2272:2281   */\n      dup4\n        /* \"#utility.yul\":2268:2285   */\n      add\n        /* \"#utility.yul\":2261:2308   */\n      mstore\n        /* \"#utility.yul\":2325:2449   */\n      tag_63\n        /* \"#utility.yul\":2444:2448   */\n      dup2\n        /* \"#utility.yul\":2435:2441   */\n      dup5\n        /* \"#utility.yul\":2325:2449   */\n      tag_31\n      jump\t// in\n    tag_63:\n        /* \"#utility.yul\":2317:2449   */\n      swap1\n      pop\n        /* \"#utility.yul\":2051:2456   */\n      swap3\n      swap2\n      pop\n      pop\n      jump\t// out\n        /* \"#utility.yul\":2543:2660   */\n    tag_33:\n        /* \"#utility.yul\":2652:2653   */\n      0x00\n        /* \"#utility.yul\":2649:2650   */\n      dup1\n        /* \"#utility.yul\":2642:2654   */\n      revert\n        /* \"#utility.yul\":2789:2866   */\n    tag_35:\n        /* \"#utility.yul\":2826:2833   */\n      0x00\n        /* \"#utility.yul\":2855:2860   */\n      dup2\n        /* \"#utility.yul\":2844:2860   */\n      swap1\n      pop\n        /* \"#utility.yul\":2789:2866   */\n      swap2\n      swap1\n      pop\n      jump\t// out\n        /* \"#utility.yul\":2872:2994   */\n    tag_36:\n        /* \"#utility.yul\":2945:2969   */\n      tag_69\n        /* \"#utility.yul\":2963:2968   */\n      dup2\n        /* \"#utility.yul\":2945:2969   */\n      tag_35\n      jump\t// in\n    tag_69:\n        /* \"#utility.yul\":2938:2943   */\n      dup2\n        /* \"#utility.yul\":2935:2970   */\n      eq\n        /* \"#utility.yul\":2925:2988   */\n      tag_70\n      jumpi\n        /* \"#utility.yul\":2984:2985   */\n      0x00\n        /* \"#utility.yul\":2981:2982   */\n      dup1\n        /* \"#utility.yul\":2974:2986   */\n      revert\n        /* \"#utility.yul\":2925:2988   */\n    tag_70:\n        /* \"#utility.yul\":2872:2994   */\n      pop\n      jump\t// out\n        /* \"#utility.yul\":3000:3139   */\n    tag_37:\n        /* \"#utility.yul\":3046:3051   */\n      0x00\n        /* \"#utility.yul\":3084:3090   */\n      dup2\n        /* \"#utility.yul\":3071:3091   */\n      calldataload\n        /* \"#utility.yul\":3062:3091   */\n      swap1\n      pop\n        /* \"#utility.yul\":3100:3133   */\n      tag_72\n        /* \"#utility.yul\":3127:3132   */\n      dup2\n        /* \"#utility.yul\":3100:3133   */\n      tag_36\n      jump\t// in\n    tag_72:\n        /* \"#utility.yul\":3000:3139   */\n      swap3\n      swap2\n      pop\n      pop\n      jump\t// out\n        /* \"#utility.yul\":3145:3474   */\n    tag_11:\n        /* \"#utility.yul\":3204:3210   */\n      0x00\n        /* \"#utility.yul\":3253:3255   */\n      0x20\n        /* \"#utility.yul\":3241:3250   */\n      dup3\n        /* \"#utility.yul\":3232:3239   */\n      dup5\n        /* \"#utility.yul\":3228:3251   */\n      sub\n        /* \"#utility.yul\":3224:3256   */\n      slt\n        /* \"#utility.yul\":3221:3340   */\n      iszero\n      tag_74\n      jumpi\n        /* \"#utility.yul\":3259:3338   */\n      tag_75\n      tag_33\n      jump\t// in\n    tag_75:\n        /* \"#utility.yul\":3221:3340   */\n    tag_74:\n        /* \"#utility.yul\":3379:3380   */\n      0x00\n        /* \"#utility.yul\":3404:3457   */\n      tag_76\n        /* \"#utility.yul\":3449:3456   */\n      dup5\n        /* \"#utility.yul\":3440:3446   */\n      dup3\n        /* \"#utility.yul\":3429:3438   */\n      dup6\n        /* \"#utility.yul\":3425:3447   */\n      add\n        /* \"#utility.yul\":3404:3457   */\n      tag_37\n      jump\t// in\n    tag_76:\n        /* \"#utility.yul\":3394:3457   */\n      swap2\n      pop\n        /* \"#utility.yul\":3350:3467   */\n      pop\n        /* \"#utility.yul\":3145:3474   */\n      swap3\n      swap2\n      pop\n      pop\n      jump\t// out\n        /* \"#utility.yul\":3480:3598   */\n    tag_38:\n        /* \"#utility.yul\":3567:3591   */\n      tag_78\n        /* \"#utility.yul\":3585:3590   */\n      dup2\n        /* \"#utility.yul\":3567:3591   */\n      tag_35\n      jump\t// in\n    tag_78:\n        /* \"#utility.yul\":3562:3565   */\n      dup3\n        /* \"#utility.yul\":3555:3592   */\n      mstore\n        /* \"#utility.yul\":3480:3598   */\n      pop\n      pop\n      jump\t// out\n        /* \"#utility.yul\":3604:3700   */\n    tag_39:\n        /* \"#utility.yul\":3641:3648   */\n      0x00\n        /* \"#utility.yul\":3670:3694   */\n      tag_80\n        /* \"#utility.yul\":3688:3693   */\n      dup3\n        /* \"#utility.yul\":3670:3694   */\n      tag_26\n      jump\t// in\n    tag_80:\n        /* \"#utility.yul\":3659:3694   */\n      swap1\n      pop\n        /* \"#utility.yul\":3604:3700   */\n      swap2\n      swap1\n      pop\n      jump\t// out\n        /* \"#utility.yul\":3706:3824   */\n    tag_40:\n        /* \"#utility.yul\":3793:3817   */\n      tag_82\n        /* \"#utility.yul\":3811:3816   */\n      dup2\n        /* \"#utility.yul\":3793:3817   */\n      tag_39\n      jump\t// in\n    tag_82:\n        /* \"#utility.yul\":3788:3791   */\n      dup3\n        /* \"#utility.yul\":3781:3818   */\n      mstore\n        /* \"#utility.yul\":3706:3824   */\n      pop\n      pop\n      jump\t// out\n        /* \"#utility.yul\":3830:4162   */\n    tag_20:\n        /* \"#utility.yul\":3951:3955   */\n      0x00\n        /* \"#utility.yul\":3989:3991   */\n      0x40\n        /* \"#utility.yul\":3978:3987   */\n      dup3\n        /* \"#utility.yul\":3974:3992   */\n      add\n        /* \"#utility.yul\":3966:3992   */\n      swap1\n      pop\n        /* \"#utility.yul\":4002:4073   */\n      tag_84\n        /* \"#utility.yul\":4070:4071   */\n      0x00\n        /* \"#utility.yul\":4059:4068   */\n      dup4\n        /* \"#utility.yul\":4055:4072   */\n      add\n        /* \"#utility.yul\":4046:4052   */\n      dup6\n        /* \"#utility.yul\":4002:4073   */\n      tag_38\n      jump\t// in\n    tag_84:\n        /* \"#utility.yul\":4083:4155   */\n      tag_85\n        /* \"#utility.yul\":4151:4153   */\n      0x20\n        /* \"#utility.yul\":4140:4149   */\n      dup4\n        /* \"#utility.yul\":4136:4154   */\n      add\n        /* \"#utility.yul\":4127:4133   */\n      dup5\n        /* \"#utility.yul\":4083:4155   */\n      tag_40\n      jump\t// in\n    tag_85:\n        /* \"#utility.yul\":3830:4162   */\n      swap4\n      swap3\n      pop\n      pop\n      pop\n      jump\t// out\n    stop\n\n    sub_0: assembly {\n            /* \"Campaign.sol\":525:2666  contract Campaign {... */\n          mstore(0x40, 0x80)\n            /* \"Campaign.sol\":923:1070  constructor (uint minContribution, address creatorAddress) {... */\n          callvalue\n          dup1\n          iszero\n          tag_1\n          jumpi\n          0x00\n          dup1\n          revert\n        tag_1:\n          pop\n          mload(0x40)\n          sub(codesize, bytecodeSize)\n          dup1\n          bytecodeSize\n          dup4\n          codecopy\n          dup2\n          dup2\n          add\n          0x40\n          mstore\n          dup2\n          add\n          swap1\n          tag_2\n          swap2\n          swap1\n          tag_3\n          jump\t// in\n        tag_2:\n            /* \"Campaign.sol\":1002:1016  creatorAddress */\n          dup1\n            /* \"Campaign.sol\":992:999  manager */\n          0x00\n          dup1\n            /* \"Campaign.sol\":992:1016  manager = creatorAddress */\n          0x0100\n          exp\n          dup2\n          sload\n          dup2\n          0xffffffffffffffffffffffffffffffffffffffff\n          mul\n          not\n          and\n          swap1\n          dup4\n          0xffffffffffffffffffffffffffffffffffffffff\n          and\n          mul\n          or\n          swap1\n          sstore\n          pop\n            /* \"Campaign.sol\":1048:1063  minContribution */\n          dup2\n            /* \"Campaign.sol\":1026:1045  minimumContribution */\n          0x01\n            /* \"Campaign.sol\":1026:1063  minimumContribution = minContribution */\n          dup2\n          swap1\n          sstore\n          pop\n            /* \"Campaign.sol\":923:1070  constructor (uint minContribution, address creatorAddress) {... */\n          pop\n          pop\n            /* \"Campaign.sol\":525:2666  contract Campaign {... */\n          jump(tag_6)\n            /* \"#utility.yul\":88:205   */\n        tag_8:\n            /* \"#utility.yul\":197:198   */\n          0x00\n            /* \"#utility.yul\":194:195   */\n          dup1\n            /* \"#utility.yul\":187:199   */\n          revert\n            /* \"#utility.yul\":334:411   */\n        tag_10:\n            /* \"#utility.yul\":371:378   */\n          0x00\n            /* \"#utility.yul\":400:405   */\n          dup2\n            /* \"#utility.yul\":389:405   */\n          swap1\n          pop\n            /* \"#utility.yul\":334:411   */\n          swap2\n          swap1\n          pop\n          jump\t// out\n            /* \"#utility.yul\":417:539   */\n        tag_11:\n            /* \"#utility.yul\":490:514   */\n          tag_23\n            /* \"#utility.yul\":508:513   */\n          dup2\n            /* \"#utility.yul\":490:514   */\n          tag_10\n          jump\t// in\n        tag_23:\n            /* \"#utility.yul\":483:488   */\n          dup2\n            /* \"#utility.yul\":480:515   */\n          eq\n            /* \"#utility.yul\":470:533   */\n          tag_24\n          jumpi\n            /* \"#utility.yul\":529:530   */\n          0x00\n            /* \"#utility.yul\":526:527   */\n          dup1\n            /* \"#utility.yul\":519:531   */\n          revert\n            /* \"#utility.yul\":470:533   */\n        tag_24:\n            /* \"#utility.yul\":417:539   */\n          pop\n          jump\t// out\n            /* \"#utility.yul\":545:688   */\n        tag_12:\n            /* \"#utility.yul\":602:607   */\n          0x00\n            /* \"#utility.yul\":633:639   */\n          dup2\n            /* \"#utility.yul\":627:640   */\n          mload\n            /* \"#utility.yul\":618:640   */\n          swap1\n          pop\n            /* \"#utility.yul\":649:682   */\n          tag_26\n            /* \"#utility.yul\":676:681   */\n          dup2\n            /* \"#utility.yul\":649:682   */\n          tag_11\n          jump\t// in\n        tag_26:\n            /* \"#utility.yul\":545:688   */\n          swap3\n          swap2\n          pop\n          pop\n          jump\t// out\n            /* \"#utility.yul\":694:820   */\n        tag_13:\n            /* \"#utility.yul\":731:738   */\n          0x00\n            /* \"#utility.yul\":771:813   */\n          0xffffffffffffffffffffffffffffffffffffffff\n            /* \"#utility.yul\":764:769   */\n          dup3\n            /* \"#utility.yul\":760:814   */\n          and\n            /* \"#utility.yul\":749:814   */\n          swap1\n          pop\n            /* \"#utility.yul\":694:820   */\n          swap2\n          swap1\n          pop\n          jump\t// out\n            /* \"#utility.yul\":826:922   */\n        tag_14:\n            /* \"#utility.yul\":863:870   */\n          0x00\n            /* \"#utility.yul\":892:916   */\n          tag_29\n            /* \"#utility.yul\":910:915   */\n          dup3\n            /* \"#utility.yul\":892:916   */\n          tag_13\n          jump\t// in\n        tag_29:\n            /* \"#utility.yul\":881:916   */\n          swap1\n          pop\n            /* \"#utility.yul\":826:922   */\n          swap2\n          swap1\n          pop\n          jump\t// out\n            /* \"#utility.yul\":928:1050   */\n        tag_15:\n            /* \"#utility.yul\":1001:1025   */\n          tag_31\n            /* \"#utility.yul\":1019:1024   */\n          dup2\n            /* \"#utility.yul\":1001:1025   */\n          tag_14\n          jump\t// in\n        tag_31:\n            /* \"#utility.yul\":994:999   */\n          dup2\n            /* \"#utility.yul\":991:1026   */\n          eq\n            /* \"#utility.yul\":981:1044   */\n          tag_32\n          jumpi\n            /* \"#utility.yul\":1040:1041   */\n          0x00\n            /* \"#utility.yul\":1037:1038   */\n          dup1\n            /* \"#utility.yul\":1030:1042   */\n          revert\n            /* \"#utility.yul\":981:1044   */\n        tag_32:\n            /* \"#utility.yul\":928:1050   */\n          pop\n          jump\t// out\n            /* \"#utility.yul\":1056:1199   */\n        tag_16:\n            /* \"#utility.yul\":1113:1118   */\n          0x00\n            /* \"#utility.yul\":1144:1150   */\n          dup2\n            /* \"#utility.yul\":1138:1151   */\n          mload\n            /* \"#utility.yul\":1129:1151   */\n          swap1\n          pop\n            /* \"#utility.yul\":1160:1193   */\n          tag_34\n            /* \"#utility.yul\":1187:1192   */\n          dup2\n            /* \"#utility.yul\":1160:1193   */\n          tag_15\n          jump\t// in\n        tag_34:\n            /* \"#utility.yul\":1056:1199   */\n          swap3\n          swap2\n          pop\n          pop\n          jump\t// out\n            /* \"#utility.yul\":1205:1712   */\n        tag_3:\n            /* \"#utility.yul\":1284:1290   */\n          0x00\n            /* \"#utility.yul\":1292:1298   */\n          dup1\n            /* \"#utility.yul\":1341:1343   */\n          0x40\n            /* \"#utility.yul\":1329:1338   */\n          dup4\n            /* \"#utility.yul\":1320:1327   */\n          dup6\n            /* \"#utility.yul\":1316:1339   */\n          sub\n            /* \"#utility.yul\":1312:1344   */\n          slt\n            /* \"#utility.yul\":1309:1428   */\n          iszero\n          tag_36\n          jumpi\n            /* \"#utility.yul\":1347:1426   */\n          tag_37\n          tag_8\n          jump\t// in\n        tag_37:\n            /* \"#utility.yul\":1309:1428   */\n        tag_36:\n            /* \"#utility.yul\":1467:1468   */\n          0x00\n            /* \"#utility.yul\":1492:1556   */\n          tag_38\n            /* \"#utility.yul\":1548:1555   */\n          dup6\n            /* \"#utility.yul\":1539:1545   */\n          dup3\n            /* \"#utility.yul\":1528:1537   */\n          dup7\n            /* \"#utility.yul\":1524:1546   */\n          add\n            /* \"#utility.yul\":1492:1556   */\n          tag_12\n          jump\t// in\n        tag_38:\n            /* \"#utility.yul\":1482:1556   */\n          swap3\n          pop\n            /* \"#utility.yul\":1438:1566   */\n          pop\n            /* \"#utility.yul\":1605:1607   */\n          0x20\n            /* \"#utility.yul\":1631:1695   */\n          tag_39\n            /* \"#utility.yul\":1687:1694   */\n          dup6\n            /* \"#utility.yul\":1678:1684   */\n          dup3\n            /* \"#utility.yul\":1667:1676   */\n          dup7\n            /* \"#utility.yul\":1663:1685   */\n          add\n            /* \"#utility.yul\":1631:1695   */\n          tag_16\n          jump\t// in\n        tag_39:\n            /* \"#utility.yul\":1621:1695   */\n          swap2\n          pop\n            /* \"#utility.yul\":1576:1705   */\n          pop\n            /* \"#utility.yul\":1205:1712   */\n          swap3\n          pop\n          swap3\n          swap1\n          pop\n          jump\t// out\n            /* \"Campaign.sol\":525:2666  contract Campaign {... */\n        tag_6:\n          dataSize(sub_0)\n          dup1\n          dataOffset(sub_0)\n          0x00\n          codecopy\n          0x00\n          return\n        stop\n\n        sub_0: assembly {\n                /* \"Campaign.sol\":525:2666  contract Campaign {... */\n              mstore(0x40, 0x80)\n              jumpi(tag_1, lt(calldatasize, 0x04))\n              shr(0xe0, calldataload(0x00))\n              dup1\n              0x82fde093\n              gt\n              tag_11\n              jumpi\n              dup1\n              0x82fde093\n              eq\n              tag_6\n              jumpi\n              dup1\n              0x8a9cfd55\n              eq\n              tag_7\n              jumpi\n              dup1\n              0x937e09b1\n              eq\n              tag_8\n              jumpi\n              dup1\n              0xd7bb99ba\n              eq\n              tag_9\n              jumpi\n              dup1\n              0xd7d1bbdb\n              eq\n              tag_10\n              jumpi\n              jump(tag_1)\n            tag_11:\n              dup1\n              0x03441006\n              eq\n              tag_2\n              jumpi\n              dup1\n              0x0a144391\n              eq\n              tag_3\n              jumpi\n              dup1\n              0x481c6a75\n              eq\n              tag_4\n              jumpi\n              dup1\n              0x81d12c58\n              eq\n              tag_5\n              jumpi\n            tag_1:\n              0x00\n              dup1\n              revert\n                /* \"Campaign.sol\":2243:2571  function finalizeRequest(uint requestIndex) public restrictedManager {... */\n            tag_2:\n              callvalue\n              dup1\n              iszero\n              tag_12\n              jumpi\n              0x00\n              dup1\n              revert\n            tag_12:\n              pop\n              tag_13\n              0x04\n              dup1\n              calldatasize\n              sub\n              dup2\n              add\n              swap1\n              tag_14\n              swap2\n              swap1\n              tag_15\n              jump\t// in\n            tag_14:\n              tag_16\n              jump\t// in\n            tag_13:\n              stop\n                /* \"Campaign.sol\":843:884  mapping(address => bool) public approvers */\n            tag_3:\n              callvalue\n              dup1\n              iszero\n              tag_17\n              jumpi\n              0x00\n              dup1\n              revert\n            tag_17:\n              pop\n              tag_18\n              0x04\n              dup1\n              calldatasize\n              sub\n              dup2\n              add\n              swap1\n              tag_19\n              swap2\n              swap1\n              tag_20\n              jump\t// in\n            tag_19:\n              tag_21\n              jump\t// in\n            tag_18:\n              mload(0x40)\n              tag_22\n              swap2\n              swap1\n              tag_23\n              jump\t// in\n            tag_22:\n              mload(0x40)\n              dup1\n              swap2\n              sub\n              swap1\n              return\n                /* \"Campaign.sol\":747:769  address public manager */\n            tag_4:\n              callvalue\n              dup1\n              iszero\n              tag_24\n              jumpi\n              0x00\n              dup1\n              revert\n            tag_24:\n              pop\n              tag_25\n              tag_26\n              jump\t// in\n            tag_25:\n              mload(0x40)\n              tag_27\n              swap2\n              swap1\n              tag_28\n              jump\t// in\n            tag_27:\n              mload(0x40)\n              dup1\n              swap2\n              sub\n              swap1\n              return\n                /* \"Campaign.sol\":812:837  Request[] public requests */\n            tag_5:\n              callvalue\n              dup1\n              iszero\n              tag_29\n              jumpi\n              0x00\n              dup1\n              revert\n            tag_29:\n              pop\n              tag_30\n              0x04\n              dup1\n              calldatasize\n              sub\n              dup2\n              add\n              swap1\n              tag_31\n              swap2\n              swap1\n              tag_15\n              jump\t// in\n            tag_31:\n              tag_32\n              jump\t// in\n            tag_30:\n              mload(0x40)\n              tag_33\n              swap6\n              swap5\n              swap4\n              swap3\n              swap2\n              swap1\n              tag_34\n              jump\t// in\n            tag_33:\n              mload(0x40)\n              dup1\n              swap2\n              sub\n              swap1\n              return\n                /* \"Campaign.sol\":890:916  uint public approversCount */\n            tag_6:\n              callvalue\n              dup1\n              iszero\n              tag_35\n              jumpi\n              0x00\n              dup1\n              revert\n            tag_35:\n              pop\n              tag_36\n              tag_37\n              jump\t// in\n            tag_36:\n              mload(0x40)\n              tag_38\n              swap2\n              swap1\n              tag_39\n              jump\t// in\n            tag_38:\n              mload(0x40)\n              dup1\n              swap2\n              sub\n              swap1\n              return\n                /* \"Campaign.sol\":1241:1841  function createRequest(string memory description, uint value, address recipient) public restrictedManager {... */\n            tag_7:\n              callvalue\n              dup1\n              iszero\n              tag_40\n              jumpi\n              0x00\n              dup1\n              revert\n            tag_40:\n              pop\n              tag_41\n              0x04\n              dup1\n              calldatasize\n              sub\n              dup2\n              add\n              swap1\n              tag_42\n              swap2\n              swap1\n              tag_43\n              jump\t// in\n            tag_42:\n              tag_44\n              jump\t// in\n            tag_41:\n              stop\n                /* \"Campaign.sol\":775:806  uint public minimumContribution */\n            tag_8:\n              callvalue\n              dup1\n              iszero\n              tag_45\n              jumpi\n              0x00\n              dup1\n              revert\n            tag_45:\n              pop\n              tag_46\n              tag_47\n              jump\t// in\n            tag_46:\n              mload(0x40)\n              tag_48\n              swap2\n              swap1\n              tag_39\n              jump\t// in\n            tag_48:\n              mload(0x40)\n              dup1\n              swap2\n              sub\n              swap1\n              return\n                /* \"Campaign.sol\":1076:1235  function contribute() public payable {... */\n            tag_9:\n              tag_49\n              tag_50\n              jump\t// in\n            tag_49:\n              stop\n                /* \"Campaign.sol\":1847:2237  function approveRequest(uint requestIndex) public {... */\n            tag_10:\n              callvalue\n              dup1\n              iszero\n              tag_51\n              jumpi\n              0x00\n              dup1\n              revert\n            tag_51:\n              pop\n              tag_52\n              0x04\n              dup1\n              calldatasize\n              sub\n              dup2\n              add\n              swap1\n              tag_53\n              swap2\n              swap1\n              tag_15\n              jump\t// in\n            tag_53:\n              tag_54\n              jump\t// in\n            tag_52:\n              stop\n                /* \"Campaign.sol\":2243:2571  function finalizeRequest(uint requestIndex) public restrictedManager {... */\n            tag_16:\n                /* \"Campaign.sol\":2638:2645  manager */\n              0x00\n              dup1\n              sload\n              swap1\n              0x0100\n              exp\n              swap1\n              div\n              0xffffffffffffffffffffffffffffffffffffffff\n              and\n                /* \"Campaign.sol\":2624:2645  msg.sender == manager */\n              0xffffffffffffffffffffffffffffffffffffffff\n              and\n                /* \"Campaign.sol\":2624:2634  msg.sender */\n              caller\n                /* \"Campaign.sol\":2624:2645  msg.sender == manager */\n              0xffffffffffffffffffffffffffffffffffffffff\n              and\n              eq\n                /* \"Campaign.sol\":2616:2646  require(msg.sender == manager) */\n              tag_56\n              jumpi\n              0x00\n              dup1\n              revert\n            tag_56:\n                /* \"Campaign.sol\":2322:2345  Request storage request */\n              0x00\n                /* \"Campaign.sol\":2348:2356  requests */\n              0x02\n                /* \"Campaign.sol\":2357:2369  requestIndex */\n              dup3\n                /* \"Campaign.sol\":2348:2370  requests[requestIndex] */\n              dup2\n              sload\n              dup2\n              lt\n              tag_58\n              jumpi\n              tag_59\n              tag_60\n              jump\t// in\n            tag_59:\n            tag_58:\n              swap1\n              0x00\n              mstore\n              keccak256(0x00, 0x20)\n              swap1\n              0x05\n              mul\n              add\n                /* \"Campaign.sol\":2322:2370  Request storage request = requests[requestIndex] */\n              swap1\n              pop\n                /* \"Campaign.sol\":2390:2397  request */\n              dup1\n                /* \"Campaign.sol\":2390:2406  request.complete */\n              0x02\n              add\n              0x14\n              swap1\n              sload\n              swap1\n              0x0100\n              exp\n              swap1\n              div\n              0xff\n              and\n                /* \"Campaign.sol\":2389:2406  !request.complete */\n              iszero\n                /* \"Campaign.sol\":2381:2407  require(!request.complete) */\n              tag_62\n              jumpi\n              0x00\n              dup1\n              revert\n            tag_62:\n                /* \"Campaign.sol\":2466:2467  2 */\n              0x02\n                /* \"Campaign.sol\":2451:2465  approversCount */\n              sload(0x04)\n                /* \"Campaign.sol\":2451:2467  approversCount/2 */\n              tag_63\n              swap2\n              swap1\n              tag_64\n              jump\t// in\n            tag_63:\n                /* \"Campaign.sol\":2426:2433  request */\n              dup2\n                /* \"Campaign.sol\":2426:2447  request.approvalCount */\n              0x03\n              add\n              sload\n                /* \"Campaign.sol\":2426:2468  request.approvalCount > (approversCount/2) */\n              gt\n                /* \"Campaign.sol\":2418:2469  require(request.approvalCount > (approversCount/2)) */\n              tag_65\n              jumpi\n              0x00\n              dup1\n              revert\n            tag_65:\n                /* \"Campaign.sol\":2488:2495  request */\n              dup1\n                /* \"Campaign.sol\":2488:2505  request.recipient */\n              0x02\n              add\n              0x00\n              swap1\n              sload\n              swap1\n              0x0100\n              exp\n              swap1\n              div\n              0xffffffffffffffffffffffffffffffffffffffff\n              and\n                /* \"Campaign.sol\":2480:2515  payable(request.recipient).transfer */\n              0xffffffffffffffffffffffffffffffffffffffff\n              and\n                /* \"Campaign.sol\":2480:2530  payable(request.recipient).transfer(request.value) */\n              0x08fc\n                /* \"Campaign.sol\":2516:2523  request */\n              dup3\n                /* \"Campaign.sol\":2516:2529  request.value */\n              0x01\n              add\n              sload\n                /* \"Campaign.sol\":2480:2530  payable(request.recipient).transfer(request.value) */\n              swap1\n              dup2\n              iszero\n              mul\n              swap1\n              mload(0x40)\n              0x00\n              mload(0x40)\n              dup1\n              dup4\n              sub\n              dup2\n              dup6\n              dup9\n              dup9\n              call\n              swap4\n              pop\n              pop\n              pop\n              pop\n              iszero\n              dup1\n              iszero\n              tag_67\n              jumpi\n              returndatasize\n              0x00\n              dup1\n              returndatacopy\n              revert(0x00, returndatasize)\n            tag_67:\n              pop\n                /* \"Campaign.sol\":2560:2564  true */\n              0x01\n                /* \"Campaign.sol\":2541:2548  request */\n              dup2\n                /* \"Campaign.sol\":2541:2557  request.complete */\n              0x02\n              add\n              0x14\n                /* \"Campaign.sol\":2541:2564  request.complete = true */\n              0x0100\n              exp\n              dup2\n              sload\n              dup2\n              0xff\n              mul\n              not\n              and\n              swap1\n              dup4\n              iszero\n              iszero\n              mul\n              or\n              swap1\n              sstore\n              pop\n                /* \"Campaign.sol\":2312:2571  {... */\n              pop\n                /* \"Campaign.sol\":2243:2571  function finalizeRequest(uint requestIndex) public restrictedManager {... */\n              pop\n              jump\t// out\n                /* \"Campaign.sol\":843:884  mapping(address => bool) public approvers */\n            tag_21:\n              mstore(0x20, 0x03)\n              dup1\n              0x00\n              mstore\n              keccak256(0x00, 0x40)\n              0x00\n              swap2\n              pop\n              sload\n              swap1\n              0x0100\n              exp\n              swap1\n              div\n              0xff\n              and\n              dup2\n              jump\t// out\n                /* \"Campaign.sol\":747:769  address public manager */\n            tag_26:\n              0x00\n              dup1\n              sload\n              swap1\n              0x0100\n              exp\n              swap1\n              div\n              0xffffffffffffffffffffffffffffffffffffffff\n              and\n              dup2\n              jump\t// out\n                /* \"Campaign.sol\":812:837  Request[] public requests */\n            tag_32:\n              0x02\n              dup2\n              dup2\n              sload\n              dup2\n              lt\n              tag_68\n              jumpi\n              0x00\n              dup1\n              revert\n            tag_68:\n              swap1\n              0x00\n              mstore\n              keccak256(0x00, 0x20)\n              swap1\n              0x05\n              mul\n              add\n              0x00\n              swap2\n              pop\n              swap1\n              pop\n              dup1\n              0x00\n              add\n              dup1\n              sload\n              tag_70\n              swap1\n              tag_71\n              jump\t// in\n            tag_70:\n              dup1\n              0x1f\n              add\n              0x20\n              dup1\n              swap2\n              div\n              mul\n              0x20\n              add\n              mload(0x40)\n              swap1\n              dup2\n              add\n              0x40\n              mstore\n              dup1\n              swap3\n              swap2\n              swap1\n              dup2\n              dup2\n              mstore\n              0x20\n              add\n              dup3\n              dup1\n              sload\n              tag_72\n              swap1\n              tag_71\n              jump\t// in\n            tag_72:\n              dup1\n              iszero\n              tag_73\n              jumpi\n              dup1\n              0x1f\n              lt\n              tag_74\n              jumpi\n              0x0100\n              dup1\n              dup4\n              sload\n              div\n              mul\n              dup4\n              mstore\n              swap2\n              0x20\n              add\n              swap2\n              jump(tag_73)\n            tag_74:\n              dup3\n              add\n              swap2\n              swap1\n              0x00\n              mstore\n              keccak256(0x00, 0x20)\n              swap1\n            tag_75:\n              dup2\n              sload\n              dup2\n              mstore\n              swap1\n              0x01\n              add\n              swap1\n              0x20\n              add\n              dup1\n              dup4\n              gt\n              tag_75\n              jumpi\n              dup3\n              swap1\n              sub\n              0x1f\n              and\n              dup3\n              add\n              swap2\n            tag_73:\n              pop\n              pop\n              pop\n              pop\n              pop\n              swap1\n              dup1\n              0x01\n              add\n              sload\n              swap1\n              dup1\n              0x02\n              add\n              0x00\n              swap1\n              sload\n              swap1\n              0x0100\n              exp\n              swap1\n              div\n              0xffffffffffffffffffffffffffffffffffffffff\n              and\n              swap1\n              dup1\n              0x02\n              add\n              0x14\n              swap1\n              sload\n              swap1\n              0x0100\n              exp\n              swap1\n              div\n              0xff\n              and\n              swap1\n              dup1\n              0x03\n              add\n              sload\n              swap1\n              pop\n              dup6\n              jump\t// out\n                /* \"Campaign.sol\":890:916  uint public approversCount */\n            tag_37:\n              sload(0x04)\n              dup2\n              jump\t// out\n                /* \"Campaign.sol\":1241:1841  function createRequest(string memory description, uint value, address recipient) public restrictedManager {... */\n            tag_44:\n                /* \"Campaign.sol\":2638:2645  manager */\n              0x00\n              dup1\n              sload\n              swap1\n              0x0100\n              exp\n              swap1\n              div\n              0xffffffffffffffffffffffffffffffffffffffff\n              and\n                /* \"Campaign.sol\":2624:2645  msg.sender == manager */\n              0xffffffffffffffffffffffffffffffffffffffff\n              and\n                /* \"Campaign.sol\":2624:2634  msg.sender */\n              caller\n                /* \"Campaign.sol\":2624:2645  msg.sender == manager */\n              0xffffffffffffffffffffffffffffffffffffffff\n              and\n              eq\n                /* \"Campaign.sol\":2616:2646  require(msg.sender == manager) */\n              tag_77\n              jumpi\n              0x00\n              dup1\n              revert\n            tag_77:\n                /* \"Campaign.sol\":1592:1618  Request storage newRequest */\n              0x00\n                /* \"Campaign.sol\":1621:1629  requests */\n              0x02\n                /* \"Campaign.sol\":1621:1636  requests.push() */\n              0x01\n              dup2\n              0x01\n              dup2\n              sload\n              add\n              dup1\n              dup3\n              sstore\n              dup1\n              swap2\n              pop\n              pop\n              sub\n              swap1\n              0x00\n              mstore\n              keccak256(0x00, 0x20)\n              swap1\n              0x05\n              mul\n              add\n                /* \"Campaign.sol\":1592:1636  Request storage newRequest = requests.push() */\n              swap1\n              pop\n                /* \"Campaign.sol\":1672:1683  description */\n              dup4\n                /* \"Campaign.sol\":1647:1657  newRequest */\n              dup2\n                /* \"Campaign.sol\":1647:1669  newRequest.description */\n              0x00\n              add\n                /* \"Campaign.sol\":1647:1683  newRequest.description = description */\n              swap1\n              dup2\n              tag_80\n              swap2\n              swap1\n              tag_81\n              jump\t// in\n            tag_80:\n              pop\n                /* \"Campaign.sol\":1712:1717  value */\n              dup3\n                /* \"Campaign.sol\":1693:1703  newRequest */\n              dup2\n                /* \"Campaign.sol\":1693:1709  newRequest.value */\n              0x01\n              add\n                /* \"Campaign.sol\":1693:1717  newRequest.value = value */\n              dup2\n              swap1\n              sstore\n              pop\n                /* \"Campaign.sol\":1750:1759  recipient */\n              dup2\n                /* \"Campaign.sol\":1727:1737  newRequest */\n              dup2\n                /* \"Campaign.sol\":1727:1747  newRequest.recipient */\n              0x02\n              add\n              0x00\n                /* \"Campaign.sol\":1727:1759  newRequest.recipient = recipient */\n              0x0100\n              exp\n              dup2\n              sload\n              dup2\n              0xffffffffffffffffffffffffffffffffffffffff\n              mul\n              not\n              and\n              swap1\n              dup4\n              0xffffffffffffffffffffffffffffffffffffffff\n              and\n              mul\n              or\n              swap1\n              sstore\n              pop\n                /* \"Campaign.sol\":1791:1796  false */\n              0x00\n                /* \"Campaign.sol\":1769:1779  newRequest */\n              dup2\n                /* \"Campaign.sol\":1769:1788  newRequest.complete */\n              0x02\n              add\n              0x14\n                /* \"Campaign.sol\":1769:1796  newRequest.complete = false */\n              0x0100\n              exp\n              dup2\n              sload\n              dup2\n              0xff\n              mul\n              not\n              and\n              swap1\n              dup4\n              iszero\n              iszero\n              mul\n              or\n              swap1\n              sstore\n              pop\n                /* \"Campaign.sol\":1833:1834  0 */\n              0x00\n                /* \"Campaign.sol\":1806:1816  newRequest */\n              dup2\n                /* \"Campaign.sol\":1806:1830  newRequest.approvalCount */\n              0x03\n              add\n                /* \"Campaign.sol\":1806:1834  newRequest.approvalCount = 0 */\n              dup2\n              swap1\n              sstore\n              pop\n                /* \"Campaign.sol\":1347:1841  {... */\n              pop\n                /* \"Campaign.sol\":1241:1841  function createRequest(string memory description, uint value, address recipient) public restrictedManager {... */\n              pop\n              pop\n              pop\n              jump\t// out\n                /* \"Campaign.sol\":775:806  uint public minimumContribution */\n            tag_47:\n              sload(0x01)\n              dup2\n              jump\t// out\n                /* \"Campaign.sol\":1076:1235  function contribute() public payable {... */\n            tag_50:\n                /* \"Campaign.sol\":1143:1162  minimumContribution */\n              sload(0x01)\n                /* \"Campaign.sol\":1131:1140  msg.value */\n              callvalue\n                /* \"Campaign.sol\":1131:1162  msg.value > minimumContribution */\n              gt\n                /* \"Campaign.sol\":1123:1163  require(msg.value > minimumContribution) */\n              tag_83\n              jumpi\n              0x00\n              dup1\n              revert\n            tag_83:\n                /* \"Campaign.sol\":1198:1202  true */\n              0x01\n                /* \"Campaign.sol\":1174:1183  approvers */\n              0x03\n                /* \"Campaign.sol\":1174:1195  approvers[msg.sender] */\n              0x00\n                /* \"Campaign.sol\":1184:1194  msg.sender */\n              caller\n                /* \"Campaign.sol\":1174:1195  approvers[msg.sender] */\n              0xffffffffffffffffffffffffffffffffffffffff\n              and\n              0xffffffffffffffffffffffffffffffffffffffff\n              and\n              dup2\n              mstore\n              0x20\n              add\n              swap1\n              dup2\n              mstore\n              0x20\n              add\n              0x00\n              keccak256\n              0x00\n                /* \"Campaign.sol\":1174:1202  approvers[msg.sender] = true */\n              0x0100\n              exp\n              dup2\n              sload\n              dup2\n              0xff\n              mul\n              not\n              and\n              swap1\n              dup4\n              iszero\n              iszero\n              mul\n              or\n              swap1\n              sstore\n              pop\n                /* \"Campaign.sol\":1212:1226  approversCount */\n              0x04\n              0x00\n                /* \"Campaign.sol\":1212:1228  approversCount++ */\n              dup2\n              sload\n              dup1\n              swap3\n              swap2\n              swap1\n              tag_84\n              swap1\n              tag_85\n              jump\t// in\n            tag_84:\n              swap2\n              swap1\n              pop\n              sstore\n              pop\n                /* \"Campaign.sol\":1076:1235  function contribute() public payable {... */\n              jump\t// out\n                /* \"Campaign.sol\":1847:2237  function approveRequest(uint requestIndex) public {... */\n            tag_54:\n                /* \"Campaign.sol\":1962:1971  approvers */\n              0x03\n                /* \"Campaign.sol\":1962:1983  approvers[msg.sender] */\n              0x00\n                /* \"Campaign.sol\":1972:1982  msg.sender */\n              caller\n                /* \"Campaign.sol\":1962:1983  approvers[msg.sender] */\n              0xffffffffffffffffffffffffffffffffffffffff\n              and\n              0xffffffffffffffffffffffffffffffffffffffff\n              and\n              dup2\n              mstore\n              0x20\n              add\n              swap1\n              dup2\n              mstore\n              0x20\n              add\n              0x00\n              keccak256\n              0x00\n              swap1\n              sload\n              swap1\n              0x0100\n              exp\n              swap1\n              div\n              0xff\n              and\n                /* \"Campaign.sol\":1954:1984  require(approvers[msg.sender]) */\n              tag_87\n              jumpi\n              0x00\n              dup1\n              revert\n            tag_87:\n                /* \"Campaign.sol\":1995:2018  Request storage request */\n              0x00\n                /* \"Campaign.sol\":2021:2029  requests */\n              0x02\n                /* \"Campaign.sol\":2030:2042  requestIndex */\n              dup3\n                /* \"Campaign.sol\":2021:2043  requests[requestIndex] */\n              dup2\n              sload\n              dup2\n              lt\n              tag_88\n              jumpi\n              tag_89\n              tag_60\n              jump\t// in\n            tag_89:\n            tag_88:\n              swap1\n              0x00\n              mstore\n              keccak256(0x00, 0x20)\n              swap1\n              0x05\n              mul\n              add\n                /* \"Campaign.sol\":1995:2043  Request storage request = requests[requestIndex] */\n              swap1\n              pop\n                /* \"Campaign.sol\":2120:2127  request */\n              dup1\n                /* \"Campaign.sol\":2120:2137  request.approvals */\n              0x04\n              add\n                /* \"Campaign.sol\":2120:2149  request.approvals[msg.sender] */\n              0x00\n                /* \"Campaign.sol\":2138:2148  msg.sender */\n              caller\n                /* \"Campaign.sol\":2120:2149  request.approvals[msg.sender] */\n              0xffffffffffffffffffffffffffffffffffffffff\n              and\n              0xffffffffffffffffffffffffffffffffffffffff\n              and\n              dup2\n              mstore\n              0x20\n              add\n              swap1\n              dup2\n              mstore\n              0x20\n              add\n              0x00\n              keccak256\n              0x00\n              swap1\n              sload\n              swap1\n              0x0100\n              exp\n              swap1\n              div\n              0xff\n              and\n                /* \"Campaign.sol\":2119:2149  !request.approvals[msg.sender] */\n              iszero\n                /* \"Campaign.sol\":2111:2150  require(!request.approvals[msg.sender]) */\n              tag_91\n              jumpi\n              0x00\n              dup1\n              revert\n            tag_91:\n                /* \"Campaign.sol\":2193:2197  true */\n              0x01\n                /* \"Campaign.sol\":2161:2168  request */\n              dup2\n                /* \"Campaign.sol\":2161:2178  request.approvals */\n              0x04\n              add\n                /* \"Campaign.sol\":2161:2190  request.approvals[msg.sender] */\n              0x00\n                /* \"Campaign.sol\":2179:2189  msg.sender */\n              caller\n                /* \"Campaign.sol\":2161:2190  request.approvals[msg.sender] */\n              0xffffffffffffffffffffffffffffffffffffffff\n              and\n              0xffffffffffffffffffffffffffffffffffffffff\n              and\n              dup2\n              mstore\n              0x20\n              add\n              swap1\n              dup2\n              mstore\n              0x20\n              add\n              0x00\n              keccak256\n              0x00\n                /* \"Campaign.sol\":2161:2197  request.approvals[msg.sender] = true */\n              0x0100\n              exp\n              dup2\n              sload\n              dup2\n              0xff\n              mul\n              not\n              and\n              swap1\n              dup4\n              iszero\n              iszero\n              mul\n              or\n              swap1\n              sstore\n              pop\n                /* \"Campaign.sol\":2207:2214  request */\n              dup1\n                /* \"Campaign.sol\":2207:2228  request.approvalCount */\n              0x03\n              add\n              0x00\n                /* \"Campaign.sol\":2207:2230  request.approvalCount++ */\n              dup2\n              sload\n              dup1\n              swap3\n              swap2\n              swap1\n              tag_92\n              swap1\n              tag_85\n              jump\t// in\n            tag_92:\n              swap2\n              swap1\n              pop\n              sstore\n              pop\n                /* \"Campaign.sol\":1897:2237  {... */\n              pop\n                /* \"Campaign.sol\":1847:2237  function approveRequest(uint requestIndex) public {... */\n              pop\n              jump\t// out\n                /* \"#utility.yul\":7:82   */\n            tag_93:\n                /* \"#utility.yul\":40:46   */\n              0x00\n                /* \"#utility.yul\":73:75   */\n              0x40\n                /* \"#utility.yul\":67:76   */\n              mload\n                /* \"#utility.yul\":57:76   */\n              swap1\n              pop\n                /* \"#utility.yul\":7:82   */\n              swap1\n              jump\t// out\n                /* \"#utility.yul\":88:205   */\n            tag_94:\n                /* \"#utility.yul\":197:198   */\n              0x00\n                /* \"#utility.yul\":194:195   */\n              dup1\n                /* \"#utility.yul\":187:199   */\n              revert\n                /* \"#utility.yul\":211:328   */\n            tag_95:\n                /* \"#utility.yul\":320:321   */\n              0x00\n                /* \"#utility.yul\":317:318   */\n              dup1\n                /* \"#utility.yul\":310:322   */\n              revert\n                /* \"#utility.yul\":334:411   */\n            tag_96:\n                /* \"#utility.yul\":371:378   */\n              0x00\n                /* \"#utility.yul\":400:405   */\n              dup2\n                /* \"#utility.yul\":389:405   */\n              swap1\n              pop\n                /* \"#utility.yul\":334:411   */\n              swap2\n              swap1\n              pop\n              jump\t// out\n                /* \"#utility.yul\":417:539   */\n            tag_97:\n                /* \"#utility.yul\":490:514   */\n              tag_145\n                /* \"#utility.yul\":508:513   */\n              dup2\n                /* \"#utility.yul\":490:514   */\n              tag_96\n              jump\t// in\n            tag_145:\n                /* \"#utility.yul\":483:488   */\n              dup2\n                /* \"#utility.yul\":480:515   */\n              eq\n                /* \"#utility.yul\":470:533   */\n              tag_146\n              jumpi\n                /* \"#utility.yul\":529:530   */\n              0x00\n                /* \"#utility.yul\":526:527   */\n              dup1\n                /* \"#utility.yul\":519:531   */\n              revert\n                /* \"#utility.yul\":470:533   */\n            tag_146:\n                /* \"#utility.yul\":417:539   */\n              pop\n              jump\t// out\n                /* \"#utility.yul\":545:684   */\n            tag_98:\n                /* \"#utility.yul\":591:596   */\n              0x00\n                /* \"#utility.yul\":629:635   */\n              dup2\n                /* \"#utility.yul\":616:636   */\n              calldataload\n                /* \"#utility.yul\":607:636   */\n              swap1\n              pop\n                /* \"#utility.yul\":645:678   */\n              tag_148\n                /* \"#utility.yul\":672:677   */\n              dup2\n                /* \"#utility.yul\":645:678   */\n              tag_97\n              jump\t// in\n            tag_148:\n                /* \"#utility.yul\":545:684   */\n              swap3\n              swap2\n              pop\n              pop\n              jump\t// out\n                /* \"#utility.yul\":690:1019   */\n            tag_15:\n                /* \"#utility.yul\":749:755   */\n              0x00\n                /* \"#utility.yul\":798:800   */\n              0x20\n                /* \"#utility.yul\":786:795   */\n              dup3\n                /* \"#utility.yul\":777:784   */\n              dup5\n                /* \"#utility.yul\":773:796   */\n              sub\n                /* \"#utility.yul\":769:801   */\n              slt\n                /* \"#utility.yul\":766:885   */\n              iszero\n              tag_150\n              jumpi\n                /* \"#utility.yul\":804:883   */\n              tag_151\n              tag_94\n              jump\t// in\n            tag_151:\n                /* \"#utility.yul\":766:885   */\n            tag_150:\n                /* \"#utility.yul\":924:925   */\n              0x00\n                /* \"#utility.yul\":949:1002   */\n              tag_152\n                /* \"#utility.yul\":994:1001   */\n              dup5\n                /* \"#utility.yul\":985:991   */\n              dup3\n                /* \"#utility.yul\":974:983   */\n              dup6\n                /* \"#utility.yul\":970:992   */\n              add\n                /* \"#utility.yul\":949:1002   */\n              tag_98\n              jump\t// in\n            tag_152:\n                /* \"#utility.yul\":939:1002   */\n              swap2\n              pop\n                /* \"#utility.yul\":895:1012   */\n              pop\n                /* \"#utility.yul\":690:1019   */\n              swap3\n              swap2\n              pop\n              pop\n              jump\t// out\n                /* \"#utility.yul\":1025:1151   */\n            tag_99:\n                /* \"#utility.yul\":1062:1069   */\n              0x00\n                /* \"#utility.yul\":1102:1144   */\n              0xffffffffffffffffffffffffffffffffffffffff\n                /* \"#utility.yul\":1095:1100   */\n              dup3\n                /* \"#utility.yul\":1091:1145   */\n              and\n                /* \"#utility.yul\":1080:1145   */\n              swap1\n              pop\n                /* \"#utility.yul\":1025:1151   */\n              swap2\n              swap1\n              pop\n              jump\t// out\n                /* \"#utility.yul\":1157:1253   */\n            tag_100:\n                /* \"#utility.yul\":1194:1201   */\n              0x00\n                /* \"#utility.yul\":1223:1247   */\n              tag_155\n                /* \"#utility.yul\":1241:1246   */\n              dup3\n                /* \"#utility.yul\":1223:1247   */\n              tag_99\n              jump\t// in\n            tag_155:\n                /* \"#utility.yul\":1212:1247   */\n              swap1\n              pop\n                /* \"#utility.yul\":1157:1253   */\n              swap2\n              swap1\n              pop\n              jump\t// out\n                /* \"#utility.yul\":1259:1381   */\n            tag_101:\n                /* \"#utility.yul\":1332:1356   */\n              tag_157\n                /* \"#utility.yul\":1350:1355   */\n              dup2\n                /* \"#utility.yul\":1332:1356   */\n              tag_100\n              jump\t// in\n            tag_157:\n                /* \"#utility.yul\":1325:1330   */\n              dup2\n                /* \"#utility.yul\":1322:1357   */\n              eq\n                /* \"#utility.yul\":1312:1375   */\n              tag_158\n              jumpi\n                /* \"#utility.yul\":1371:1372   */\n              0x00\n                /* \"#utility.yul\":1368:1369   */\n              dup1\n                /* \"#utility.yul\":1361:1373   */\n              revert\n                /* \"#utility.yul\":1312:1375   */\n            tag_158:\n                /* \"#utility.yul\":1259:1381   */\n              pop\n              jump\t// out\n                /* \"#utility.yul\":1387:1526   */\n            tag_102:\n                /* \"#utility.yul\":1433:1438   */\n              0x00\n                /* \"#utility.yul\":1471:1477   */\n              dup2\n                /* \"#utility.yul\":1458:1478   */\n              calldataload\n                /* \"#utility.yul\":1449:1478   */\n              swap1\n              pop\n                /* \"#utility.yul\":1487:1520   */\n              tag_160\n                /* \"#utility.yul\":1514:1519   */\n              dup2\n                /* \"#utility.yul\":1487:1520   */\n              tag_101\n              jump\t// in\n            tag_160:\n                /* \"#utility.yul\":1387:1526   */\n              swap3\n              swap2\n              pop\n              pop\n              jump\t// out\n                /* \"#utility.yul\":1532:1861   */\n            tag_20:\n                /* \"#utility.yul\":1591:1597   */\n              0x00\n                /* \"#utility.yul\":1640:1642   */\n              0x20\n                /* \"#utility.yul\":1628:1637   */\n              dup3\n                /* \"#utility.yul\":1619:1626   */\n              dup5\n                /* \"#utility.yul\":1615:1638   */\n              sub\n                /* \"#utility.yul\":1611:1643   */\n              slt\n                /* \"#utility.yul\":1608:1727   */\n              iszero\n              tag_162\n              jumpi\n                /* \"#utility.yul\":1646:1725   */\n              tag_163\n              tag_94\n              jump\t// in\n            tag_163:\n                /* \"#utility.yul\":1608:1727   */\n            tag_162:\n                /* \"#utility.yul\":1766:1767   */\n              0x00\n                /* \"#utility.yul\":1791:1844   */\n              tag_164\n                /* \"#utility.yul\":1836:1843   */\n              dup5\n                /* \"#utility.yul\":1827:1833   */\n              dup3\n                /* \"#utility.yul\":1816:1825   */\n              dup6\n                /* \"#utility.yul\":1812:1834   */\n              add\n                /* \"#utility.yul\":1791:1844   */\n              tag_102\n              jump\t// in\n            tag_164:\n                /* \"#utility.yul\":1781:1844   */\n              swap2\n              pop\n                /* \"#utility.yul\":1737:1854   */\n              pop\n                /* \"#utility.yul\":1532:1861   */\n              swap3\n              swap2\n              pop\n              pop\n              jump\t// out\n                /* \"#utility.yul\":1867:1957   */\n            tag_103:\n                /* \"#utility.yul\":1901:1908   */\n              0x00\n                /* \"#utility.yul\":1944:1949   */\n              dup2\n                /* \"#utility.yul\":1937:1950   */\n              iszero\n                /* \"#utility.yul\":1930:1951   */\n              iszero\n                /* \"#utility.yul\":1919:1951   */\n              swap1\n              pop\n                /* \"#utility.yul\":1867:1957   */\n              swap2\n              swap1\n              pop\n              jump\t// out\n                /* \"#utility.yul\":1963:2072   */\n            tag_104:\n                /* \"#utility.yul\":2044:2065   */\n              tag_167\n                /* \"#utility.yul\":2059:2064   */\n              dup2\n                /* \"#utility.yul\":2044:2065   */\n              tag_103\n              jump\t// in\n            tag_167:\n                /* \"#utility.yul\":2039:2042   */\n              dup3\n                /* \"#utility.yul\":2032:2066   */\n              mstore\n                /* \"#utility.yul\":1963:2072   */\n              pop\n              pop\n              jump\t// out\n                /* \"#utility.yul\":2078:2288   */\n            tag_23:\n                /* \"#utility.yul\":2165:2169   */\n              0x00\n                /* \"#utility.yul\":2203:2205   */\n              0x20\n                /* \"#utility.yul\":2192:2201   */\n              dup3\n                /* \"#utility.yul\":2188:2206   */\n              add\n                /* \"#utility.yul\":2180:2206   */\n              swap1\n              pop\n                /* \"#utility.yul\":2216:2281   */\n              tag_169\n                /* \"#utility.yul\":2278:2279   */\n              0x00\n                /* \"#utility.yul\":2267:2276   */\n              dup4\n                /* \"#utility.yul\":2263:2280   */\n              add\n                /* \"#utility.yul\":2254:2260   */\n              dup5\n                /* \"#utility.yul\":2216:2281   */\n              tag_104\n              jump\t// in\n            tag_169:\n                /* \"#utility.yul\":2078:2288   */\n              swap3\n              swap2\n              pop\n              pop\n              jump\t// out\n                /* \"#utility.yul\":2294:2412   */\n            tag_105:\n                /* \"#utility.yul\":2381:2405   */\n              tag_171\n                /* \"#utility.yul\":2399:2404   */\n              dup2\n                /* \"#utility.yul\":2381:2405   */\n              tag_100\n              jump\t// in\n            tag_171:\n                /* \"#utility.yul\":2376:2379   */\n              dup3\n                /* \"#utility.yul\":2369:2406   */\n              mstore\n                /* \"#utility.yul\":2294:2412   */\n              pop\n              pop\n              jump\t// out\n                /* \"#utility.yul\":2418:2640   */\n            tag_28:\n                /* \"#utility.yul\":2511:2515   */\n              0x00\n                /* \"#utility.yul\":2549:2551   */\n              0x20\n                /* \"#utility.yul\":2538:2547   */\n              dup3\n                /* \"#utility.yul\":2534:2552   */\n              add\n                /* \"#utility.yul\":2526:2552   */\n              swap1\n              pop\n                /* \"#utility.yul\":2562:2633   */\n              tag_173\n                /* \"#utility.yul\":2630:2631   */\n              0x00\n                /* \"#utility.yul\":2619:2628   */\n              dup4\n                /* \"#utility.yul\":2615:2632   */\n              add\n                /* \"#utility.yul\":2606:2612   */\n              dup5\n                /* \"#utility.yul\":2562:2633   */\n              tag_105\n              jump\t// in\n            tag_173:\n                /* \"#utility.yul\":2418:2640   */\n              swap3\n              swap2\n              pop\n              pop\n              jump\t// out\n                /* \"#utility.yul\":2646:2745   */\n            tag_106:\n                /* \"#utility.yul\":2698:2704   */\n              0x00\n                /* \"#utility.yul\":2732:2737   */\n              dup2\n                /* \"#utility.yul\":2726:2738   */\n              mload\n                /* \"#utility.yul\":2716:2738   */\n              swap1\n              pop\n                /* \"#utility.yul\":2646:2745   */\n              swap2\n              swap1\n              pop\n              jump\t// out\n                /* \"#utility.yul\":2751:2920   */\n            tag_107:\n                /* \"#utility.yul\":2835:2846   */\n              0x00\n                /* \"#utility.yul\":2869:2875   */\n              dup3\n                /* \"#utility.yul\":2864:2867   */\n              dup3\n                /* \"#utility.yul\":2857:2876   */\n              mstore\n                /* \"#utility.yul\":2909:2913   */\n              0x20\n                /* \"#utility.yul\":2904:2907   */\n              dup3\n                /* \"#utility.yul\":2900:2914   */\n              add\n                /* \"#utility.yul\":2885:2914   */\n              swap1\n              pop\n                /* \"#utility.yul\":2751:2920   */\n              swap3\n              swap2\n              pop\n              pop\n              jump\t// out\n                /* \"#utility.yul\":2926:3065   */\n            tag_108:\n                /* \"#utility.yul\":3015:3021   */\n              dup3\n                /* \"#utility.yul\":3010:3013   */\n              dup2\n                /* \"#utility.yul\":3005:3008   */\n              dup4\n                /* \"#utility.yul\":2999:3022   */\n              mcopy\n                /* \"#utility.yul\":3056:3057   */\n              0x00\n                /* \"#utility.yul\":3047:3053   */\n              dup4\n                /* \"#utility.yul\":3042:3045   */\n              dup4\n                /* \"#utility.yul\":3038:3054   */\n              add\n                /* \"#utility.yul\":3031:3058   */\n              mstore\n                /* \"#utility.yul\":2926:3065   */\n              pop\n              pop\n              pop\n              jump\t// out\n                /* \"#utility.yul\":3071:3173   */\n            tag_109:\n                /* \"#utility.yul\":3112:3118   */\n              0x00\n                /* \"#utility.yul\":3163:3165   */\n              0x1f\n                /* \"#utility.yul\":3159:3166   */\n              not\n                /* \"#utility.yul\":3154:3156   */\n              0x1f\n                /* \"#utility.yul\":3147:3152   */\n              dup4\n                /* \"#utility.yul\":3143:3157   */\n              add\n                /* \"#utility.yul\":3139:3167   */\n              and\n                /* \"#utility.yul\":3129:3167   */\n              swap1\n              pop\n                /* \"#utility.yul\":3071:3173   */\n              swap2\n              swap1\n              pop\n              jump\t// out\n                /* \"#utility.yul\":3179:3556   */\n            tag_110:\n                /* \"#utility.yul\":3267:3270   */\n              0x00\n                /* \"#utility.yul\":3295:3334   */\n              tag_179\n                /* \"#utility.yul\":3328:3333   */\n              dup3\n                /* \"#utility.yul\":3295:3334   */\n              tag_106\n              jump\t// in\n            tag_179:\n                /* \"#utility.yul\":3350:3421   */\n              tag_180\n                /* \"#utility.yul\":3414:3420   */\n              dup2\n                /* \"#utility.yul\":3409:3412   */\n              dup6\n                /* \"#utility.yul\":3350:3421   */\n              tag_107\n              jump\t// in\n            tag_180:\n                /* \"#utility.yul\":3343:3421   */\n              swap4\n              pop\n                /* \"#utility.yul\":3430:3495   */\n              tag_181\n                /* \"#utility.yul\":3488:3494   */\n              dup2\n                /* \"#utility.yul\":3483:3486   */\n              dup6\n                /* \"#utility.yul\":3476:3480   */\n              0x20\n                /* \"#utility.yul\":3469:3474   */\n              dup7\n                /* \"#utility.yul\":3465:3481   */\n              add\n                /* \"#utility.yul\":3430:3495   */\n              tag_108\n              jump\t// in\n            tag_181:\n                /* \"#utility.yul\":3520:3549   */\n              tag_182\n                /* \"#utility.yul\":3542:3548   */\n              dup2\n                /* \"#utility.yul\":3520:3549   */\n              tag_109\n              jump\t// in\n            tag_182:\n                /* \"#utility.yul\":3515:3518   */\n              dup5\n                /* \"#utility.yul\":3511:3550   */\n              add\n                /* \"#utility.yul\":3504:3550   */\n              swap2\n              pop\n                /* \"#utility.yul\":3271:3556   */\n              pop\n                /* \"#utility.yul\":3179:3556   */\n              swap3\n              swap2\n              pop\n              pop\n              jump\t// out\n                /* \"#utility.yul\":3562:3680   */\n            tag_111:\n                /* \"#utility.yul\":3649:3673   */\n              tag_184\n                /* \"#utility.yul\":3667:3672   */\n              dup2\n                /* \"#utility.yul\":3649:3673   */\n              tag_96\n              jump\t// in\n            tag_184:\n                /* \"#utility.yul\":3644:3647   */\n              dup3\n                /* \"#utility.yul\":3637:3674   */\n              mstore\n                /* \"#utility.yul\":3562:3680   */\n              pop\n              pop\n              jump\t// out\n                /* \"#utility.yul\":3686:4429   */\n            tag_34:\n                /* \"#utility.yul\":3905:3909   */\n              0x00\n                /* \"#utility.yul\":3943:3946   */\n              0xa0\n                /* \"#utility.yul\":3932:3941   */\n              dup3\n                /* \"#utility.yul\":3928:3947   */\n              add\n                /* \"#utility.yul\":3920:3947   */\n              swap1\n              pop\n                /* \"#utility.yul\":3993:4002   */\n              dup2\n                /* \"#utility.yul\":3987:3991   */\n              dup2\n                /* \"#utility.yul\":3983:4003   */\n              sub\n                /* \"#utility.yul\":3979:3980   */\n              0x00\n                /* \"#utility.yul\":3968:3977   */\n              dup4\n                /* \"#utility.yul\":3964:3981   */\n              add\n                /* \"#utility.yul\":3957:4004   */\n              mstore\n                /* \"#utility.yul\":4021:4099   */\n              tag_186\n                /* \"#utility.yul\":4094:4098   */\n              dup2\n                /* \"#utility.yul\":4085:4091   */\n              dup9\n                /* \"#utility.yul\":4021:4099   */\n              tag_110\n              jump\t// in\n            tag_186:\n                /* \"#utility.yul\":4013:4099   */\n              swap1\n              pop\n                /* \"#utility.yul\":4109:4181   */\n              tag_187\n                /* \"#utility.yul\":4177:4179   */\n              0x20\n                /* \"#utility.yul\":4166:4175   */\n              dup4\n                /* \"#utility.yul\":4162:4180   */\n              add\n                /* \"#utility.yul\":4153:4159   */\n              dup8\n                /* \"#utility.yul\":4109:4181   */\n              tag_111\n              jump\t// in\n            tag_187:\n                /* \"#utility.yul\":4191:4263   */\n              tag_188\n                /* \"#utility.yul\":4259:4261   */\n              0x40\n                /* \"#utility.yul\":4248:4257   */\n              dup4\n                /* \"#utility.yul\":4244:4262   */\n              add\n                /* \"#utility.yul\":4235:4241   */\n              dup7\n                /* \"#utility.yul\":4191:4263   */\n              tag_105\n              jump\t// in\n            tag_188:\n                /* \"#utility.yul\":4273:4339   */\n              tag_189\n                /* \"#utility.yul\":4335:4337   */\n              0x60\n                /* \"#utility.yul\":4324:4333   */\n              dup4\n                /* \"#utility.yul\":4320:4338   */\n              add\n                /* \"#utility.yul\":4311:4317   */\n              dup6\n                /* \"#utility.yul\":4273:4339   */\n              tag_104\n              jump\t// in\n            tag_189:\n                /* \"#utility.yul\":4349:4422   */\n              tag_190\n                /* \"#utility.yul\":4417:4420   */\n              0x80\n                /* \"#utility.yul\":4406:4415   */\n              dup4\n                /* \"#utility.yul\":4402:4421   */\n              add\n                /* \"#utility.yul\":4393:4399   */\n              dup5\n                /* \"#utility.yul\":4349:4422   */\n              tag_111\n              jump\t// in\n            tag_190:\n                /* \"#utility.yul\":3686:4429   */\n              swap7\n              swap6\n              pop\n              pop\n              pop\n              pop\n              pop\n              pop\n              jump\t// out\n                /* \"#utility.yul\":4435:4657   */\n            tag_39:\n                /* \"#utility.yul\":4528:4532   */\n              0x00\n                /* \"#utility.yul\":4566:4568   */\n              0x20\n                /* \"#utility.yul\":4555:4564   */\n              dup3\n                /* \"#utility.yul\":4551:4569   */\n              add\n                /* \"#utility.yul\":4543:4569   */\n              swap1\n              pop\n                /* \"#utility.yul\":4579:4650   */\n              tag_192\n                /* \"#utility.yul\":4647:4648   */\n              0x00\n                /* \"#utility.yul\":4636:4645   */\n              dup4\n                /* \"#utility.yul\":4632:4649   */\n              add\n                /* \"#utility.yul\":4623:4629   */\n              dup5\n                /* \"#utility.yul\":4579:4650   */\n              tag_111\n              jump\t// in\n            tag_192:\n                /* \"#utility.yul\":4435:4657   */\n              swap3\n              swap2\n              pop\n              pop\n              jump\t// out\n                /* \"#utility.yul\":4663:4780   */\n            tag_112:\n                /* \"#utility.yul\":4772:4773   */\n              0x00\n                /* \"#utility.yul\":4769:4770   */\n              dup1\n                /* \"#utility.yul\":4762:4774   */\n              revert\n                /* \"#utility.yul\":4786:4903   */\n            tag_113:\n                /* \"#utility.yul\":4895:4896   */\n              0x00\n                /* \"#utility.yul\":4892:4893   */\n              dup1\n                /* \"#utility.yul\":4885:4897   */\n              revert\n                /* \"#utility.yul\":4909:5089   */\n            tag_114:\n                /* \"#utility.yul\":4957:5034   */\n              0x4e487b7100000000000000000000000000000000000000000000000000000000\n                /* \"#utility.yul\":4954:4955   */\n              0x00\n                /* \"#utility.yul\":4947:5035   */\n              mstore\n                /* \"#utility.yul\":5054:5058   */\n              0x41\n                /* \"#utility.yul\":5051:5052   */\n              0x04\n                /* \"#utility.yul\":5044:5059   */\n              mstore\n                /* \"#utility.yul\":5078:5082   */\n              0x24\n                /* \"#utility.yul\":5075:5076   */\n              0x00\n                /* \"#utility.yul\":5068:5083   */\n              revert\n                /* \"#utility.yul\":5095:5376   */\n            tag_115:\n                /* \"#utility.yul\":5178:5205   */\n              tag_197\n                /* \"#utility.yul\":5200:5204   */\n              dup3\n                /* \"#utility.yul\":5178:5205   */\n              tag_109\n              jump\t// in\n            tag_197:\n                /* \"#utility.yul\":5170:5176   */\n              dup2\n                /* \"#utility.yul\":5166:5206   */\n              add\n                /* \"#utility.yul\":5308:5314   */\n              dup2\n                /* \"#utility.yul\":5296:5306   */\n              dup2\n                /* \"#utility.yul\":5293:5315   */\n              lt\n                /* \"#utility.yul\":5272:5290   */\n              0xffffffffffffffff\n                /* \"#utility.yul\":5260:5270   */\n              dup3\n                /* \"#utility.yul\":5257:5291   */\n              gt\n                /* \"#utility.yul\":5254:5316   */\n              or\n                /* \"#utility.yul\":5251:5339   */\n              iszero\n              tag_198\n              jumpi\n                /* \"#utility.yul\":5319:5337   */\n              tag_199\n              tag_114\n              jump\t// in\n            tag_199:\n                /* \"#utility.yul\":5251:5339   */\n            tag_198:\n                /* \"#utility.yul\":5359:5369   */\n              dup1\n                /* \"#utility.yul\":5355:5357   */\n              0x40\n                /* \"#utility.yul\":5348:5370   */\n              mstore\n                /* \"#utility.yul\":5138:5376   */\n              pop\n                /* \"#utility.yul\":5095:5376   */\n              pop\n              pop\n              jump\t// out\n                /* \"#utility.yul\":5382:5511   */\n            tag_116:\n                /* \"#utility.yul\":5416:5422   */\n              0x00\n                /* \"#utility.yul\":5443:5463   */\n              tag_201\n              tag_93\n              jump\t// in\n            tag_201:\n                /* \"#utility.yul\":5433:5463   */\n              swap1\n              pop\n                /* \"#utility.yul\":5472:5505   */\n              tag_202\n                /* \"#utility.yul\":5500:5504   */\n              dup3\n                /* \"#utility.yul\":5492:5498   */\n              dup3\n                /* \"#utility.yul\":5472:5505   */\n              tag_115\n              jump\t// in\n            tag_202:\n                /* \"#utility.yul\":5382:5511   */\n              swap2\n              swap1\n              pop\n              jump\t// out\n                /* \"#utility.yul\":5517:5825   */\n            tag_117:\n                /* \"#utility.yul\":5579:5583   */\n              0x00\n                /* \"#utility.yul\":5669:5687   */\n              0xffffffffffffffff\n                /* \"#utility.yul\":5661:5667   */\n              dup3\n                /* \"#utility.yul\":5658:5688   */\n              gt\n                /* \"#utility.yul\":5655:5711   */\n              iszero\n              tag_204\n              jumpi\n                /* \"#utility.yul\":5691:5709   */\n              tag_205\n              tag_114\n              jump\t// in\n            tag_205:\n                /* \"#utility.yul\":5655:5711   */\n            tag_204:\n                /* \"#utility.yul\":5729:5758   */\n              tag_206\n                /* \"#utility.yul\":5751:5757   */\n              dup3\n                /* \"#utility.yul\":5729:5758   */\n              tag_109\n              jump\t// in\n            tag_206:\n                /* \"#utility.yul\":5721:5758   */\n              swap1\n              pop\n                /* \"#utility.yul\":5813:5817   */\n              0x20\n                /* \"#utility.yul\":5807:5811   */\n              dup2\n                /* \"#utility.yul\":5803:5818   */\n              add\n                /* \"#utility.yul\":5795:5818   */\n              swap1\n              pop\n                /* \"#utility.yul\":5517:5825   */\n              swap2\n              swap1\n              pop\n              jump\t// out\n                /* \"#utility.yul\":5831:5979   */\n            tag_118:\n                /* \"#utility.yul\":5929:5935   */\n              dup3\n                /* \"#utility.yul\":5924:5927   */\n              dup2\n                /* \"#utility.yul\":5919:5922   */\n              dup4\n                /* \"#utility.yul\":5906:5936   */\n              calldatacopy\n                /* \"#utility.yul\":5970:5971   */\n              0x00\n                /* \"#utility.yul\":5961:5967   */\n              dup4\n                /* \"#utility.yul\":5956:5959   */\n              dup4\n                /* \"#utility.yul\":5952:5968   */\n              add\n                /* \"#utility.yul\":5945:5972   */\n              mstore\n                /* \"#utility.yul\":5831:5979   */\n              pop\n              pop\n              pop\n              jump\t// out\n                /* \"#utility.yul\":5985:6410   */\n            tag_119:\n                /* \"#utility.yul\":6063:6068   */\n              0x00\n                /* \"#utility.yul\":6088:6154   */\n              tag_209\n                /* \"#utility.yul\":6104:6153   */\n              tag_210\n                /* \"#utility.yul\":6146:6152   */\n              dup5\n                /* \"#utility.yul\":6104:6153   */\n              tag_117\n              jump\t// in\n            tag_210:\n                /* \"#utility.yul\":6088:6154   */\n              tag_116\n              jump\t// in\n            tag_209:\n                /* \"#utility.yul\":6079:6154   */\n              swap1\n              pop\n                /* \"#utility.yul\":6177:6183   */\n              dup3\n                /* \"#utility.yul\":6170:6175   */\n              dup2\n                /* \"#utility.yul\":6163:6184   */\n              mstore\n                /* \"#utility.yul\":6215:6219   */\n              0x20\n                /* \"#utility.yul\":6208:6213   */\n              dup2\n                /* \"#utility.yul\":6204:6220   */\n              add\n                /* \"#utility.yul\":6253:6256   */\n              dup5\n                /* \"#utility.yul\":6244:6250   */\n              dup5\n                /* \"#utility.yul\":6239:6242   */\n              dup5\n                /* \"#utility.yul\":6235:6251   */\n              add\n                /* \"#utility.yul\":6232:6257   */\n              gt\n                /* \"#utility.yul\":6229:6341   */\n              iszero\n              tag_211\n              jumpi\n                /* \"#utility.yul\":6260:6339   */\n              tag_212\n              tag_113\n              jump\t// in\n            tag_212:\n                /* \"#utility.yul\":6229:6341   */\n            tag_211:\n                /* \"#utility.yul\":6350:6404   */\n              tag_213\n                /* \"#utility.yul\":6397:6403   */\n              dup5\n                /* \"#utility.yul\":6392:6395   */\n              dup3\n                /* \"#utility.yul\":6387:6390   */\n              dup6\n                /* \"#utility.yul\":6350:6404   */\n              tag_118\n              jump\t// in\n            tag_213:\n                /* \"#utility.yul\":6069:6410   */\n              pop\n                /* \"#utility.yul\":5985:6410   */\n              swap4\n              swap3\n              pop\n              pop\n              pop\n              jump\t// out\n                /* \"#utility.yul\":6430:6770   */\n            tag_120:\n                /* \"#utility.yul\":6486:6491   */\n              0x00\n                /* \"#utility.yul\":6535:6538   */\n              dup3\n                /* \"#utility.yul\":6528:6532   */\n              0x1f\n                /* \"#utility.yul\":6520:6526   */\n              dup4\n                /* \"#utility.yul\":6516:6533   */\n              add\n                /* \"#utility.yul\":6512:6539   */\n              slt\n                /* \"#utility.yul\":6502:6624   */\n              tag_215\n              jumpi\n                /* \"#utility.yul\":6543:6622   */\n              tag_216\n              tag_112\n              jump\t// in\n            tag_216:\n                /* \"#utility.yul\":6502:6624   */\n            tag_215:\n                /* \"#utility.yul\":6660:6666   */\n              dup2\n                /* \"#utility.yul\":6647:6667   */\n              calldataload\n                /* \"#utility.yul\":6685:6764   */\n              tag_217\n                /* \"#utility.yul\":6760:6763   */\n              dup5\n                /* \"#utility.yul\":6752:6758   */\n              dup3\n                /* \"#utility.yul\":6745:6749   */\n              0x20\n                /* \"#utility.yul\":6737:6743   */\n              dup7\n                /* \"#utility.yul\":6733:6750   */\n              add\n                /* \"#utility.yul\":6685:6764   */\n              tag_119\n              jump\t// in\n            tag_217:\n                /* \"#utility.yul\":6676:6764   */\n              swap2\n              pop\n                /* \"#utility.yul\":6492:6770   */\n              pop\n                /* \"#utility.yul\":6430:6770   */\n              swap3\n              swap2\n              pop\n              pop\n              jump\t// out\n                /* \"#utility.yul\":6776:7575   */\n            tag_43:\n                /* \"#utility.yul\":6863:6869   */\n              0x00\n                /* \"#utility.yul\":6871:6877   */\n              dup1\n                /* \"#utility.yul\":6879:6885   */\n              0x00\n                /* \"#utility.yul\":6928:6930   */\n              0x60\n                /* \"#utility.yul\":6916:6925   */\n              dup5\n                /* \"#utility.yul\":6907:6914   */\n              dup7\n                /* \"#utility.yul\":6903:6926   */\n              sub\n                /* \"#utility.yul\":6899:6931   */\n              slt\n                /* \"#utility.yul\":6896:7015   */\n              iszero\n              tag_219\n              jumpi\n                /* \"#utility.yul\":6934:7013   */\n              tag_220\n              tag_94\n              jump\t// in\n            tag_220:\n                /* \"#utility.yul\":6896:7015   */\n            tag_219:\n                /* \"#utility.yul\":7082:7083   */\n              0x00\n                /* \"#utility.yul\":7071:7080   */\n              dup5\n                /* \"#utility.yul\":7067:7084   */\n              add\n                /* \"#utility.yul\":7054:7085   */\n              calldataload\n                /* \"#utility.yul\":7112:7130   */\n              0xffffffffffffffff\n                /* \"#utility.yul\":7104:7110   */\n              dup2\n                /* \"#utility.yul\":7101:7131   */\n              gt\n                /* \"#utility.yul\":7098:7215   */\n              iszero\n              tag_221\n              jumpi\n                /* \"#utility.yul\":7134:7213   */\n              tag_222\n              tag_95\n              jump\t// in\n            tag_222:\n                /* \"#utility.yul\":7098:7215   */\n            tag_221:\n                /* \"#utility.yul\":7239:7302   */\n              tag_223\n                /* \"#utility.yul\":7294:7301   */\n              dup7\n                /* \"#utility.yul\":7285:7291   */\n              dup3\n                /* \"#utility.yul\":7274:7283   */\n              dup8\n                /* \"#utility.yul\":7270:7292   */\n              add\n                /* \"#utility.yul\":7239:7302   */\n              tag_120\n              jump\t// in\n            tag_223:\n                /* \"#utility.yul\":7229:7302   */\n              swap4\n              pop\n                /* \"#utility.yul\":7025:7312   */\n              pop\n                /* \"#utility.yul\":7351:7353   */\n              0x20\n                /* \"#utility.yul\":7377:7430   */\n              tag_224\n                /* \"#utility.yul\":7422:7429   */\n              dup7\n                /* \"#utility.yul\":7413:7419   */\n              dup3\n                /* \"#utility.yul\":7402:7411   */\n              dup8\n                /* \"#utility.yul\":7398:7420   */\n              add\n                /* \"#utility.yul\":7377:7430   */\n              tag_98\n              jump\t// in\n            tag_224:\n                /* \"#utility.yul\":7367:7430   */\n              swap3\n              pop\n                /* \"#utility.yul\":7322:7440   */\n              pop\n                /* \"#utility.yul\":7479:7481   */\n              0x40\n                /* \"#utility.yul\":7505:7558   */\n              tag_225\n                /* \"#utility.yul\":7550:7557   */\n              dup7\n                /* \"#utility.yul\":7541:7547   */\n              dup3\n                /* \"#utility.yul\":7530:7539   */\n              dup8\n                /* \"#utility.yul\":7526:7548   */\n              add\n                /* \"#utility.yul\":7505:7558   */\n              tag_102\n              jump\t// in\n            tag_225:\n                /* \"#utility.yul\":7495:7558   */\n              swap2\n              pop\n                /* \"#utility.yul\":7450:7568   */\n              pop\n                /* \"#utility.yul\":6776:7575   */\n              swap3\n              pop\n              swap3\n              pop\n              swap3\n              jump\t// out\n                /* \"#utility.yul\":7581:7761   */\n            tag_60:\n                /* \"#utility.yul\":7629:7706   */\n              0x4e487b7100000000000000000000000000000000000000000000000000000000\n                /* \"#utility.yul\":7626:7627   */\n              0x00\n                /* \"#utility.yul\":7619:7707   */\n              mstore\n                /* \"#utility.yul\":7726:7730   */\n              0x32\n                /* \"#utility.yul\":7723:7724   */\n              0x04\n                /* \"#utility.yul\":7716:7731   */\n              mstore\n                /* \"#utility.yul\":7750:7754   */\n              0x24\n                /* \"#utility.yul\":7747:7748   */\n              0x00\n                /* \"#utility.yul\":7740:7755   */\n              revert\n                /* \"#utility.yul\":7767:7947   */\n            tag_121:\n                /* \"#utility.yul\":7815:7892   */\n              0x4e487b7100000000000000000000000000000000000000000000000000000000\n                /* \"#utility.yul\":7812:7813   */\n              0x00\n                /* \"#utility.yul\":7805:7893   */\n              mstore\n                /* \"#utility.yul\":7912:7916   */\n              0x12\n                /* \"#utility.yul\":7909:7910   */\n              0x04\n                /* \"#utility.yul\":7902:7917   */\n              mstore\n                /* \"#utility.yul\":7936:7940   */\n              0x24\n                /* \"#utility.yul\":7933:7934   */\n              0x00\n                /* \"#utility.yul\":7926:7941   */\n              revert\n                /* \"#utility.yul\":7953:8133   */\n            tag_122:\n                /* \"#utility.yul\":8001:8078   */\n              0x4e487b7100000000000000000000000000000000000000000000000000000000\n                /* \"#utility.yul\":7998:7999   */\n              0x00\n                /* \"#utility.yul\":7991:8079   */\n              mstore\n                /* \"#utility.yul\":8098:8102   */\n              0x11\n                /* \"#utility.yul\":8095:8096   */\n              0x04\n                /* \"#utility.yul\":8088:8103   */\n              mstore\n                /* \"#utility.yul\":8122:8126   */\n              0x24\n                /* \"#utility.yul\":8119:8120   */\n              0x00\n                /* \"#utility.yul\":8112:8127   */\n              revert\n                /* \"#utility.yul\":8139:8324   */\n            tag_64:\n                /* \"#utility.yul\":8179:8180   */\n              0x00\n                /* \"#utility.yul\":8196:8216   */\n              tag_230\n                /* \"#utility.yul\":8214:8215   */\n              dup3\n                /* \"#utility.yul\":8196:8216   */\n              tag_96\n              jump\t// in\n            tag_230:\n                /* \"#utility.yul\":8191:8216   */\n              swap2\n              pop\n                /* \"#utility.yul\":8230:8250   */\n              tag_231\n                /* \"#utility.yul\":8248:8249   */\n              dup4\n                /* \"#utility.yul\":8230:8250   */\n              tag_96\n              jump\t// in\n            tag_231:\n                /* \"#utility.yul\":8225:8250   */\n              swap3\n              pop\n                /* \"#utility.yul\":8269:8270   */\n              dup3\n                /* \"#utility.yul\":8259:8294   */\n              tag_232\n              jumpi\n                /* \"#utility.yul\":8274:8292   */\n              tag_233\n              tag_121\n              jump\t// in\n            tag_233:\n                /* \"#utility.yul\":8259:8294   */\n            tag_232:\n                /* \"#utility.yul\":8316:8317   */\n              dup3\n                /* \"#utility.yul\":8313:8314   */\n              dup3\n                /* \"#utility.yul\":8309:8318   */\n              div\n                /* \"#utility.yul\":8304:8318   */\n              swap1\n              pop\n                /* \"#utility.yul\":8139:8324   */\n              swap3\n              swap2\n              pop\n              pop\n              jump\t// out\n                /* \"#utility.yul\":8330:8510   */\n            tag_123:\n                /* \"#utility.yul\":8378:8455   */\n              0x4e487b7100000000000000000000000000000000000000000000000000000000\n                /* \"#utility.yul\":8375:8376   */\n              0x00\n                /* \"#utility.yul\":8368:8456   */\n              mstore\n                /* \"#utility.yul\":8475:8479   */\n              0x22\n                /* \"#utility.yul\":8472:8473   */\n              0x04\n                /* \"#utility.yul\":8465:8480   */\n              mstore\n                /* \"#utility.yul\":8499:8503   */\n              0x24\n                /* \"#utility.yul\":8496:8497   */\n              0x00\n                /* \"#utility.yul\":8489:8504   */\n              revert\n                /* \"#utility.yul\":8516:8836   */\n            tag_71:\n                /* \"#utility.yul\":8560:8566   */\n              0x00\n                /* \"#utility.yul\":8597:8598   */\n              0x02\n                /* \"#utility.yul\":8591:8595   */\n              dup3\n                /* \"#utility.yul\":8587:8599   */\n              div\n                /* \"#utility.yul\":8577:8599   */\n              swap1\n              pop\n                /* \"#utility.yul\":8644:8645   */\n              0x01\n                /* \"#utility.yul\":8638:8642   */\n              dup3\n                /* \"#utility.yul\":8634:8646   */\n              and\n                /* \"#utility.yul\":8665:8683   */\n              dup1\n                /* \"#utility.yul\":8655:8736   */\n              tag_236\n              jumpi\n                /* \"#utility.yul\":8721:8725   */\n              0x7f\n                /* \"#utility.yul\":8713:8719   */\n              dup3\n                /* \"#utility.yul\":8709:8726   */\n              and\n                /* \"#utility.yul\":8699:8726   */\n              swap2\n              pop\n                /* \"#utility.yul\":8655:8736   */\n            tag_236:\n                /* \"#utility.yul\":8783:8785   */\n              0x20\n                /* \"#utility.yul\":8775:8781   */\n              dup3\n                /* \"#utility.yul\":8772:8786   */\n              lt\n                /* \"#utility.yul\":8752:8770   */\n              dup2\n                /* \"#utility.yul\":8749:8787   */\n              sub\n                /* \"#utility.yul\":8746:8830   */\n              tag_237\n              jumpi\n                /* \"#utility.yul\":8802:8820   */\n              tag_238\n              tag_123\n              jump\t// in\n            tag_238:\n                /* \"#utility.yul\":8746:8830   */\n            tag_237:\n                /* \"#utility.yul\":8567:8836   */\n              pop\n                /* \"#utility.yul\":8516:8836   */\n              swap2\n              swap1\n              pop\n              jump\t// out\n                /* \"#utility.yul\":8842:8983   */\n            tag_124:\n                /* \"#utility.yul\":8891:8895   */\n              0x00\n                /* \"#utility.yul\":8914:8917   */\n              dup2\n                /* \"#utility.yul\":8906:8917   */\n              swap1\n              pop\n                /* \"#utility.yul\":8937:8940   */\n              dup2\n                /* \"#utility.yul\":8934:8935   */\n              0x00\n                /* \"#utility.yul\":8927:8941   */\n              mstore\n                /* \"#utility.yul\":8971:8975   */\n              0x20\n                /* \"#utility.yul\":8968:8969   */\n              0x00\n                /* \"#utility.yul\":8958:8976   */\n              keccak256\n                /* \"#utility.yul\":8950:8976   */\n              swap1\n              pop\n                /* \"#utility.yul\":8842:8983   */\n              swap2\n              swap1\n              pop\n              jump\t// out\n                /* \"#utility.yul\":8989:9082   */\n            tag_125:\n                /* \"#utility.yul\":9026:9032   */\n              0x00\n                /* \"#utility.yul\":9073:9075   */\n              0x20\n                /* \"#utility.yul\":9068:9070   */\n              0x1f\n                /* \"#utility.yul\":9061:9066   */\n              dup4\n                /* \"#utility.yul\":9057:9071   */\n              add\n                /* \"#utility.yul\":9053:9076   */\n              div\n                /* \"#utility.yul\":9043:9076   */\n              swap1\n              pop\n                /* \"#utility.yul\":8989:9082   */\n              swap2\n              swap1\n              pop\n              jump\t// out\n                /* \"#utility.yul\":9088:9195   */\n            tag_126:\n                /* \"#utility.yul\":9132:9140   */\n              0x00\n                /* \"#utility.yul\":9182:9187   */\n              dup3\n                /* \"#utility.yul\":9176:9180   */\n              dup3\n                /* \"#utility.yul\":9172:9188   */\n              shl\n                /* \"#utility.yul\":9151:9188   */\n              swap1\n              pop\n                /* \"#utility.yul\":9088:9195   */\n              swap3\n              swap2\n              pop\n              pop\n              jump\t// out\n                /* \"#utility.yul\":9201:9594   */\n            tag_127:\n                /* \"#utility.yul\":9270:9276   */\n              0x00\n                /* \"#utility.yul\":9320:9321   */\n              0x08\n                /* \"#utility.yul\":9308:9318   */\n              dup4\n                /* \"#utility.yul\":9304:9322   */\n              mul\n                /* \"#utility.yul\":9343:9440   */\n              tag_243\n                /* \"#utility.yul\":9373:9439   */\n              0xffffffffffffffffffffffffffffffffffffffffffffffffffffffffffffffff\n                /* \"#utility.yul\":9362:9371   */\n              dup3\n                /* \"#utility.yul\":9343:9440   */\n              tag_126\n              jump\t// in\n            tag_243:\n                /* \"#utility.yul\":9461:9500   */\n              tag_244\n                /* \"#utility.yul\":9491:9499   */\n              dup7\n                /* \"#utility.yul\":9480:9489   */\n              dup4\n                /* \"#utility.yul\":9461:9500   */\n              tag_126\n              jump\t// in\n            tag_244:\n                /* \"#utility.yul\":9449:9500   */\n              swap6\n              pop\n                /* \"#utility.yul\":9533:9537   */\n              dup1\n                /* \"#utility.yul\":9529:9538   */\n              not\n                /* \"#utility.yul\":9522:9527   */\n              dup5\n                /* \"#utility.yul\":9518:9539   */\n              and\n                /* \"#utility.yul\":9509:9539   */\n              swap4\n              pop\n                /* \"#utility.yul\":9582:9586   */\n              dup1\n                /* \"#utility.yul\":9572:9580   */\n              dup7\n                /* \"#utility.yul\":9568:9587   */\n              and\n                /* \"#utility.yul\":9561:9566   */\n              dup5\n                /* \"#utility.yul\":9558:9588   */\n              or\n                /* \"#utility.yul\":9548:9588   */\n              swap3\n              pop\n                /* \"#utility.yul\":9277:9594   */\n              pop\n              pop\n                /* \"#utility.yul\":9201:9594   */\n              swap4\n              swap3\n              pop\n              pop\n              pop\n              jump\t// out\n                /* \"#utility.yul\":9600:9660   */\n            tag_128:\n                /* \"#utility.yul\":9628:9631   */\n              0x00\n                /* \"#utility.yul\":9649:9654   */\n              dup2\n                /* \"#utility.yul\":9642:9654   */\n              swap1\n              pop\n                /* \"#utility.yul\":9600:9660   */\n              swap2\n              swap1\n              pop\n              jump\t// out\n                /* \"#utility.yul\":9666:9808   */\n            tag_129:\n                /* \"#utility.yul\":9716:9725   */\n              0x00\n                /* \"#utility.yul\":9749:9802   */\n              tag_247\n                /* \"#utility.yul\":9767:9801   */\n              tag_248\n                /* \"#utility.yul\":9776:9800   */\n              tag_249\n                /* \"#utility.yul\":9794:9799   */\n              dup5\n                /* \"#utility.yul\":9776:9800   */\n              tag_96\n              jump\t// in\n            tag_249:\n                /* \"#utility.yul\":9767:9801   */\n              tag_128\n              jump\t// in\n            tag_248:\n                /* \"#utility.yul\":9749:9802   */\n              tag_96\n              jump\t// in\n            tag_247:\n                /* \"#utility.yul\":9736:9802   */\n              swap1\n              pop\n                /* \"#utility.yul\":9666:9808   */\n              swap2\n              swap1\n              pop\n              jump\t// out\n                /* \"#utility.yul\":9814:9889   */\n            tag_130:\n                /* \"#utility.yul\":9857:9860   */\n              0x00\n                /* \"#utility.yul\":9878:9883   */\n              dup2\n                /* \"#utility.yul\":9871:9883   */\n              swap1\n              pop\n                /* \"#utility.yul\":9814:9889   */\n              swap2\n              swap1\n              pop\n              jump\t// out\n                /* \"#utility.yul\":9895:10164   */\n            tag_131:\n                /* \"#utility.yul\":10005:10044   */\n              tag_252\n                /* \"#utility.yul\":10036:10043   */\n              dup4\n                /* \"#utility.yul\":10005:10044   */\n              tag_129\n              jump\t// in\n            tag_252:\n                /* \"#utility.yul\":10066:10157   */\n              tag_253\n                /* \"#utility.yul\":10115:10156   */\n              tag_254\n                /* \"#utility.yul\":10139:10155   */\n              dup3\n                /* \"#utility.yul\":10115:10156   */\n              tag_130\n              jump\t// in\n            tag_254:\n                /* \"#utility.yul\":10107:10113   */\n              dup5\n                /* \"#utility.yul\":10100:10104   */\n              dup5\n                /* \"#utility.yul\":10094:10105   */\n              sload\n                /* \"#utility.yul\":10066:10157   */\n              tag_127\n              jump\t// in\n            tag_253:\n                /* \"#utility.yul\":10060:10064   */\n              dup3\n                /* \"#utility.yul\":10053:10158   */\n              sstore\n                /* \"#utility.yul\":9971:10164   */\n              pop\n                /* \"#utility.yul\":9895:10164   */\n              pop\n              pop\n              pop\n              jump\t// out\n                /* \"#utility.yul\":10170:10243   */\n            tag_132:\n                /* \"#utility.yul\":10215:10218   */\n              0x00\n                /* \"#utility.yul\":10170:10243   */\n              swap1\n              jump\t// out\n                /* \"#utility.yul\":10249:10438   */\n            tag_133:\n                /* \"#utility.yul\":10326:10358   */\n              tag_257\n              tag_132\n              jump\t// in\n            tag_257:\n                /* \"#utility.yul\":10367:10432   */\n              tag_258\n                /* \"#utility.yul\":10425:10431   */\n              dup2\n                /* \"#utility.yul\":10417:10423   */\n              dup5\n                /* \"#utility.yul\":10411:10415   */\n              dup5\n                /* \"#utility.yul\":10367:10432   */\n              tag_131\n              jump\t// in\n            tag_258:\n                /* \"#utility.yul\":10302:10438   */\n              pop\n                /* \"#utility.yul\":10249:10438   */\n              pop\n              pop\n              jump\t// out\n                /* \"#utility.yul\":10444:10630   */\n            tag_134:\n                /* \"#utility.yul\":10504:10624   */\n            tag_260:\n                /* \"#utility.yul\":10521:10524   */\n              dup2\n                /* \"#utility.yul\":10514:10519   */\n              dup2\n                /* \"#utility.yul\":10511:10525   */\n              lt\n                /* \"#utility.yul\":10504:10624   */\n              iszero\n              tag_262\n              jumpi\n                /* \"#utility.yul\":10575:10614   */\n              tag_263\n                /* \"#utility.yul\":10612:10613   */\n              0x00\n                /* \"#utility.yul\":10605:10610   */\n              dup3\n                /* \"#utility.yul\":10575:10614   */\n              tag_133\n              jump\t// in\n            tag_263:\n                /* \"#utility.yul\":10548:10549   */\n              0x01\n                /* \"#utility.yul\":10541:10546   */\n              dup2\n                /* \"#utility.yul\":10537:10550   */\n              add\n                /* \"#utility.yul\":10528:10550   */\n              swap1\n              pop\n                /* \"#utility.yul\":10504:10624   */\n              jump(tag_260)\n            tag_262:\n                /* \"#utility.yul\":10444:10630   */\n              pop\n              pop\n              jump\t// out\n                /* \"#utility.yul\":10636:11179   */\n            tag_135:\n                /* \"#utility.yul\":10737:10739   */\n              0x1f\n                /* \"#utility.yul\":10732:10735   */\n              dup3\n                /* \"#utility.yul\":10729:10740   */\n              gt\n                /* \"#utility.yul\":10726:11172   */\n              iszero\n              tag_265\n              jumpi\n                /* \"#utility.yul\":10771:10809   */\n              tag_266\n                /* \"#utility.yul\":10803:10808   */\n              dup2\n                /* \"#utility.yul\":10771:10809   */\n              tag_124\n              jump\t// in\n            tag_266:\n                /* \"#utility.yul\":10855:10884   */\n              tag_267\n                /* \"#utility.yul\":10873:10883   */\n              dup5\n                /* \"#utility.yul\":10855:10884   */\n              tag_125\n              jump\t// in\n            tag_267:\n                /* \"#utility.yul\":10845:10853   */\n              dup2\n                /* \"#utility.yul\":10841:10885   */\n              add\n                /* \"#utility.yul\":11038:11040   */\n              0x20\n                /* \"#utility.yul\":11026:11036   */\n              dup6\n                /* \"#utility.yul\":11023:11041   */\n              lt\n                /* \"#utility.yul\":11020:11069   */\n              iszero\n              tag_268\n              jumpi\n                /* \"#utility.yul\":11059:11067   */\n              dup2\n                /* \"#utility.yul\":11044:11067   */\n              swap1\n              pop\n                /* \"#utility.yul\":11020:11069   */\n            tag_268:\n                /* \"#utility.yul\":11082:11162   */\n              tag_269\n                /* \"#utility.yul\":11138:11160   */\n              tag_270\n                /* \"#utility.yul\":11156:11159   */\n              dup6\n                /* \"#utility.yul\":11138:11160   */\n              tag_125\n              jump\t// in\n            tag_270:\n                /* \"#utility.yul\":11128:11136   */\n              dup4\n                /* \"#utility.yul\":11124:11161   */\n              add\n                /* \"#utility.yul\":11111:11122   */\n              dup3\n                /* \"#utility.yul\":11082:11162   */\n              tag_134\n              jump\t// in\n            tag_269:\n                /* \"#utility.yul\":10741:11172   */\n              pop\n              pop\n                /* \"#utility.yul\":10726:11172   */\n            tag_265:\n                /* \"#utility.yul\":10636:11179   */\n              pop\n              pop\n              pop\n              jump\t// out\n                /* \"#utility.yul\":11185:11302   */\n            tag_136:\n                /* \"#utility.yul\":11239:11247   */\n              0x00\n                /* \"#utility.yul\":11289:11294   */\n              dup3\n                /* \"#utility.yul\":11283:11287   */\n              dup3\n                /* \"#utility.yul\":11279:11295   */\n              shr\n                /* \"#utility.yul\":11258:11295   */\n              swap1\n              pop\n                /* \"#utility.yul\":11185:11302   */\n              swap3\n              swap2\n              pop\n              pop\n              jump\t// out\n                /* \"#utility.yul\":11308:11477   */\n            tag_137:\n                /* \"#utility.yul\":11352:11358   */\n              0x00\n                /* \"#utility.yul\":11385:11436   */\n              tag_273\n                /* \"#utility.yul\":11433:11434   */\n              0x00\n                /* \"#utility.yul\":11429:11435   */\n              not\n                /* \"#utility.yul\":11421:11426   */\n              dup5\n                /* \"#utility.yul\":11418:11419   */\n              0x08\n                /* \"#utility.yul\":11414:11427   */\n              mul\n                /* \"#utility.yul\":11385:11436   */\n              tag_136\n              jump\t// in\n            tag_273:\n                /* \"#utility.yul\":11381:11437   */\n              not\n                /* \"#utility.yul\":11466:11470   */\n              dup1\n                /* \"#utility.yul\":11460:11464   */\n              dup4\n                /* \"#utility.yul\":11456:11471   */\n              and\n                /* \"#utility.yul\":11446:11471   */\n              swap2\n              pop\n                /* \"#utility.yul\":11359:11477   */\n              pop\n                /* \"#utility.yul\":11308:11477   */\n              swap3\n              swap2\n              pop\n              pop\n              jump\t// out\n                /* \"#utility.yul\":11482:11777   */\n            tag_138:\n                /* \"#utility.yul\":11558:11562   */\n              0x00\n                /* \"#utility.yul\":11704:11733   */\n              tag_275\n                /* \"#utility.yul\":11729:11732   */\n              dup4\n                /* \"#utility.yul\":11723:11727   */\n              dup4\n                /* \"#utility.yul\":11704:11733   */\n              tag_137\n              jump\t// in\n            tag_275:\n                /* \"#utility.yul\":11696:11733   */\n              swap2\n              pop\n                /* \"#utility.yul\":11766:11769   */\n              dup3\n                /* \"#utility.yul\":11763:11764   */\n              0x02\n                /* \"#utility.yul\":11759:11770   */\n              mul\n                /* \"#utility.yul\":11753:11757   */\n              dup3\n                /* \"#utility.yul\":11750:11771   */\n              or\n                /* \"#utility.yul\":11742:11771   */\n              swap1\n              pop\n                /* \"#utility.yul\":11482:11777   */\n              swap3\n              swap2\n              pop\n              pop\n              jump\t// out\n                /* \"#utility.yul\":11782:13177   */\n            tag_81:\n                /* \"#utility.yul\":11899:11936   */\n              tag_277\n                /* \"#utility.yul\":11932:11935   */\n              dup3\n                /* \"#utility.yul\":11899:11936   */\n              tag_106\n              jump\t// in\n            tag_277:\n                /* \"#utility.yul\":12001:12019   */\n              0xffffffffffffffff\n                /* \"#utility.yul\":11993:11999   */\n              dup2\n                /* \"#utility.yul\":11990:12020   */\n              gt\n                /* \"#utility.yul\":11987:12043   */\n              iszero\n              tag_278\n              jumpi\n                /* \"#utility.yul\":12023:12041   */\n              tag_279\n              tag_114\n              jump\t// in\n            tag_279:\n                /* \"#utility.yul\":11987:12043   */\n            tag_278:\n                /* \"#utility.yul\":12067:12105   */\n              tag_280\n                /* \"#utility.yul\":12099:12103   */\n              dup3\n                /* \"#utility.yul\":12093:12104   */\n              sload\n                /* \"#utility.yul\":12067:12105   */\n              tag_71\n              jump\t// in\n            tag_280:\n                /* \"#utility.yul\":12152:12219   */\n              tag_281\n                /* \"#utility.yul\":12212:12218   */\n              dup3\n                /* \"#utility.yul\":12204:12210   */\n              dup3\n                /* \"#utility.yul\":12198:12202   */\n              dup6\n                /* \"#utility.yul\":12152:12219   */\n              tag_135\n              jump\t// in\n            tag_281:\n                /* \"#utility.yul\":12246:12247   */\n              0x00\n                /* \"#utility.yul\":12270:12274   */\n              0x20\n                /* \"#utility.yul\":12257:12274   */\n              swap1\n              pop\n                /* \"#utility.yul\":12302:12304   */\n              0x1f\n                /* \"#utility.yul\":12294:12300   */\n              dup4\n                /* \"#utility.yul\":12291:12305   */\n              gt\n                /* \"#utility.yul\":12319:12320   */\n              0x01\n                /* \"#utility.yul\":12314:12932   */\n              dup2\n              eq\n              tag_283\n              jumpi\n                /* \"#utility.yul\":12976:12977   */\n              0x00\n                /* \"#utility.yul\":12993:12999   */\n              dup5\n                /* \"#utility.yul\":12990:13067   */\n              iszero\n              tag_284\n              jumpi\n                /* \"#utility.yul\":13042:13051   */\n              dup3\n                /* \"#utility.yul\":13037:13040   */\n              dup8\n                /* \"#utility.yul\":13033:13052   */\n              add\n                /* \"#utility.yul\":13027:13053   */\n              mload\n                /* \"#utility.yul\":13018:13053   */\n              swap1\n              pop\n                /* \"#utility.yul\":12990:13067   */\n            tag_284:\n                /* \"#utility.yul\":13093:13160   */\n              tag_285\n                /* \"#utility.yul\":13153:13159   */\n              dup6\n                /* \"#utility.yul\":13146:13151   */\n              dup3\n                /* \"#utility.yul\":13093:13160   */\n              tag_138\n              jump\t// in\n            tag_285:\n                /* \"#utility.yul\":13087:13091   */\n              dup7\n                /* \"#utility.yul\":13080:13161   */\n              sstore\n                /* \"#utility.yul\":12949:13171   */\n              pop\n                /* \"#utility.yul\":12284:13171   */\n              jump(tag_282)\n                /* \"#utility.yul\":12314:12932   */\n            tag_283:\n                /* \"#utility.yul\":12366:12370   */\n              0x1f\n                /* \"#utility.yul\":12362:12371   */\n              not\n                /* \"#utility.yul\":12354:12360   */\n              dup5\n                /* \"#utility.yul\":12350:12372   */\n              and\n                /* \"#utility.yul\":12400:12437   */\n              tag_286\n                /* \"#utility.yul\":12432:12436   */\n              dup7\n                /* \"#utility.yul\":12400:12437   */\n              tag_124\n              jump\t// in\n            tag_286:\n                /* \"#utility.yul\":12459:12460   */\n              0x00\n                /* \"#utility.yul\":12473:12681   */\n            tag_287:\n                /* \"#utility.yul\":12487:12494   */\n              dup3\n                /* \"#utility.yul\":12484:12485   */\n              dup2\n                /* \"#utility.yul\":12481:12495   */\n              lt\n                /* \"#utility.yul\":12473:12681   */\n              iszero\n              tag_289\n              jumpi\n                /* \"#utility.yul\":12566:12575   */\n              dup5\n                /* \"#utility.yul\":12561:12564   */\n              dup10\n                /* \"#utility.yul\":12557:12576   */\n              add\n                /* \"#utility.yul\":12551:12577   */\n              mload\n                /* \"#utility.yul\":12543:12549   */\n              dup3\n                /* \"#utility.yul\":12536:12578   */\n              sstore\n                /* \"#utility.yul\":12617:12618   */\n              0x01\n                /* \"#utility.yul\":12609:12615   */\n              dup3\n                /* \"#utility.yul\":12605:12619   */\n              add\n                /* \"#utility.yul\":12595:12619   */\n              swap2\n              pop\n                /* \"#utility.yul\":12664:12666   */\n              0x20\n                /* \"#utility.yul\":12653:12662   */\n              dup6\n                /* \"#utility.yul\":12649:12667   */\n              add\n                /* \"#utility.yul\":12636:12667   */\n              swap5\n              pop\n                /* \"#utility.yul\":12510:12514   */\n              0x20\n                /* \"#utility.yul\":12507:12508   */\n              dup2\n                /* \"#utility.yul\":12503:12515   */\n              add\n                /* \"#utility.yul\":12498:12515   */\n              swap1\n              pop\n                /* \"#utility.yul\":12473:12681   */\n              jump(tag_287)\n            tag_289:\n                /* \"#utility.yul\":12709:12715   */\n              dup7\n                /* \"#utility.yul\":12700:12707   */\n              dup4\n                /* \"#utility.yul\":12697:12716   */\n              lt\n                /* \"#utility.yul\":12694:12873   */\n              iszero\n              tag_290\n              jumpi\n                /* \"#utility.yul\":12767:12776   */\n              dup5\n                /* \"#utility.yul\":12762:12765   */\n              dup10\n                /* \"#utility.yul\":12758:12777   */\n              add\n                /* \"#utility.yul\":12752:12778   */\n              mload\n                /* \"#utility.yul\":12810:12858   */\n              tag_291\n                /* \"#utility.yul\":12852:12856   */\n              0x1f\n                /* \"#utility.yul\":12844:12850   */\n              dup10\n                /* \"#utility.yul\":12840:12857   */\n              and\n                /* \"#utility.yul\":12829:12838   */\n              dup3\n                /* \"#utility.yul\":12810:12858   */\n              tag_137\n              jump\t// in\n            tag_291:\n                /* \"#utility.yul\":12802:12808   */\n              dup4\n                /* \"#utility.yul\":12795:12859   */\n              sstore\n                /* \"#utility.yul\":12717:12873   */\n              pop\n                /* \"#utility.yul\":12694:12873   */\n            tag_290:\n                /* \"#utility.yul\":12919:12920   */\n              0x01\n                /* \"#utility.yul\":12915:12916   */\n              0x02\n                /* \"#utility.yul\":12907:12913   */\n              dup9\n                /* \"#utility.yul\":12903:12917   */\n              mul\n                /* \"#utility.yul\":12899:12921   */\n              add\n                /* \"#utility.yul\":12893:12897   */\n              dup9\n                /* \"#utility.yul\":12886:12922   */\n              sstore\n                /* \"#utility.yul\":12321:12932   */\n              pop\n              pop\n              pop\n                /* \"#utility.yul\":12284:13171   */\n            tag_282:\n              pop\n                /* \"#utility.yul\":11874:13177   */\n              pop\n              pop\n              pop\n                /* \"#utility.yul\":11782:13177   */\n              pop\n              pop\n              jump\t// out\n                /* \"#utility.yul\":13183:13416   */\n            tag_85:\n                /* \"#utility.yul\":13222:13225   */\n              0x00\n                /* \"#utility.yul\":13245:13269   */\n              tag_293\n                /* \"#utility.yul\":13263:13268   */\n              dup3\n                /* \"#utility.yul\":13245:13269   */\n              tag_96\n              jump\t// in\n            tag_293:\n                /* \"#utility.yul\":13236:13269   */\n              swap2\n              pop\n                /* \"#utility.yul\":13291:13357   */\n              0xffffffffffffffffffffffffffffffffffffffffffffffffffffffffffffffff\n                /* \"#utility.yul\":13284:13289   */\n              dup3\n                /* \"#utility.yul\":13281:13358   */\n              sub\n                /* \"#utility.yul\":13278:13381   */\n              tag_294\n              jumpi\n                /* \"#utility.yul\":13361:13379   */\n              tag_295\n              tag_122\n              jump\t// in\n            tag_295:\n                /* \"#utility.yul\":13278:13381   */\n            tag_294:\n                /* \"#utility.yul\":13408:13409   */\n              0x01\n                /* \"#utility.yul\":13401:13406   */\n              dup3\n                /* \"#utility.yul\":13397:13410   */\n              add\n                /* \"#utility.yul\":13390:13410   */\n              swap1\n              pop\n                /* \"#utility.yul\":13183:13416   */\n              swap2\n              swap1\n              pop\n              jump\t// out\n\n            auxdata: 0xa2646970667358221220e3c49184e9704e0f4d464c9690148078ffbac0ee8e98c736008194bcdb6a801564736f6c63430008190033\n        }\n    }\n\n    auxdata: 0xa2646970667358221220ab7fd9edd5edcad36dd14e8bb0f39762794e42010faec1ce26a5fbfaa44c171e64736f6c63430008190033\n}\n","bytecode":{"linkReferences":{},"object":"6080604052348015600e575f80fd5b506113fd8061001c5f395ff3fe608060405234801561000f575f80fd5b5060043610610034575f3560e01c80634acb9d4f14610038578063a3303a7514610056575b5f80fd5b610040610072565b60405161004d9190610289565b60405180910390f35b610070600480360381019061006b91906102e0565b6100fc565b005b60605f8054806020026020016040519081016040528092919081815260200182805480156100f257602002820191905f5260205f20905b815f9054906101000a900473ffffffffffffffffffffffffffffffffffffffff1673ffffffffffffffffffffffffffffffffffffffff16815260200190600101908083116100a9575b5050505050905090565b5f813360405161010b90610195565b61011692919061033a565b604051809103905ff08015801561012f573d5f803e3d5ffd5b5090505f81908060018154018082558091505060019003905f5260205f20015f9091909190916101000a81548173ffffffffffffffffffffffffffffffffffffffff021916908373ffffffffffffffffffffffffffffffffffffffff1602179055505050565b6110668061036283390190565b5f81519050919050565b5f82825260208201905092915050565b5f819050602082019050919050565b5f73ffffffffffffffffffffffffffffffffffffffff82169050919050565b5f6101f4826101cb565b9050919050565b610204816101ea565b82525050565b5f61021583836101fb565b60208301905092915050565b5f602082019050919050565b5f610237826101a2565b61024181856101ac565b935061024c836101bc565b805f5b8381101561027c578151610263888261020a565b975061026e83610221565b92505060018101905061024f565b5085935050505092915050565b5f6020820190508181035f8301526102a1818461022d565b905092915050565b5f80fd5b5f819050919050565b6102bf816102ad565b81146102c9575f80fd5b50565b5f813590506102da816102b6565b92915050565b5f602082840312156102f5576102f46102a9565b5b5f610302848285016102cc565b91505092915050565b610314816102ad565b82525050565b5f610324826101cb565b9050919050565b6103348161031a565b82525050565b5f60408201905061034d5f83018561030b565b61035a602083018461032b565b939250505056fe608060405234801561000f575f80fd5b506040516110663803806110668339818101604052810190610031919061010f565b805f806101000a81548173ffffffffffffffffffffffffffffffffffffffff021916908373ffffffffffffffffffffffffffffffffffffffff16021790555081600181905550505061014d565b5f80fd5b5f819050919050565b61009481610082565b811461009e575f80fd5b50565b5f815190506100af8161008b565b92915050565b5f73ffffffffffffffffffffffffffffffffffffffff82169050919050565b5f6100de826100b5565b9050919050565b6100ee816100d4565b81146100f8575f80fd5b50565b5f81519050610109816100e5565b92915050565b5f80604083850312156101255761012461007e565b5b5f610132858286016100a1565b9250506020610143858286016100fb565b9150509250929050565b610f0c8061015a5f395ff3fe608060405260043610610085575f3560e01c806382fde0931161005857806382fde093146101575780638a9cfd5514610181578063937e09b1146101a9578063d7bb99ba146101d3578063d7d1bbdb146101dd57610085565b806303441006146100895780630a144391146100b1578063481c6a75146100ed57806381d12c5814610117575b5f80fd5b348015610094575f80fd5b506100af60048036038101906100aa919061077c565b610205565b005b3480156100bc575f80fd5b506100d760048036038101906100d29190610801565b610342565b6040516100e49190610846565b60405180910390f35b3480156100f8575f80fd5b5061010161035f565b60405161010e919061086e565b60405180910390f35b348015610122575f80fd5b5061013d6004803603810190610138919061077c565b610382565b60405161014e959493929190610906565b60405180910390f35b348015610162575f80fd5b5061016b610475565b604051610178919061095e565b60405180910390f35b34801561018c575f80fd5b506101a760048036038101906101a29190610aa3565b61047b565b005b3480156101b4575f80fd5b506101bd610579565b6040516101ca919061095e565b60405180910390f35b6101db61057f565b005b3480156101e8575f80fd5b5061020360048036038101906101fe919061077c565b6105fa565b005b5f8054906101000a900473ffffffffffffffffffffffffffffffffffffffff1673ffffffffffffffffffffffffffffffffffffffff163373ffffffffffffffffffffffffffffffffffffffff161461025b575f80fd5b5f600282815481106102705761026f610b0f565b5b905f5260205f20906005020190508060020160149054906101000a900460ff1615610299575f80fd5b60026004546102a89190610b96565b8160030154116102b6575f80fd5b806002015f9054906101000a900473ffffffffffffffffffffffffffffffffffffffff1673ffffffffffffffffffffffffffffffffffffffff166108fc826001015490811502906040515f60405180830381858888f19350505050158015610320573d5f803e3d5ffd5b5060018160020160146101000a81548160ff0219169083151502179055505050565b6003602052805f5260405f205f915054906101000a900460ff1681565b5f8054906101000a900473ffffffffffffffffffffffffffffffffffffffff1681565b60028181548110610391575f80fd5b905f5260205f2090600502015f91509050805f0180546103b090610bf3565b80601f01602080910402602001604051908101604052809291908181526020018280546103dc90610bf3565b80156104275780601f106103fe57610100808354040283529160200191610427565b820191905f5260205f20905b81548152906001019060200180831161040a57829003601f168201915b505050505090806001015490806002015f9054906101000a900473ffffffffffffffffffffffffffffffffffffffff16908060020160149054906101000a900460ff16908060030154905085565b60045481565b5f8054906101000a900473ffffffffffffffffffffffffffffffffffffffff1673ffffffffffffffffffffffffffffffffffffffff163373ffffffffffffffffffffffffffffffffffffffff16146104d1575f80fd5b5f600260018160018154018082558091505003905f5260205f209060050201905083815f0190816105029190610dc0565b5082816001018190555081816002015f6101000a81548173ffffffffffffffffffffffffffffffffffffffff021916908373ffffffffffffffffffffffffffffffffffffffff1602179055505f8160020160146101000a81548160ff0219169083151502179055505f816003018190555050505050565b60015481565b600154341161058c575f80fd5b600160035f3373ffffffffffffffffffffffffffffffffffffffff1673ffffffffffffffffffffffffffffffffffffffff1681526020019081526020015f205f6101000a81548160ff02191690831515021790555060045f8154809291906105f390610e8f565b9190505550565b60035f3373ffffffffffffffffffffffffffffffffffffffff1673ffffffffffffffffffffffffffffffffffffffff1681526020019081526020015f205f9054906101000a900460ff1661064c575f80fd5b5f6002828154811061066157610660610b0f565b5b905f5260205f2090600502019050806004015f3373ffffffffffffffffffffffffffffffffffffffff1673ffffffffffffffffffffffffffffffffffffffff1681526020019081526020015f205f9054906101000a900460ff16156106c4575f80fd5b6001816004015f3373ffffffffffffffffffffffffffffffffffffffff1673ffffffffffffffffffffffffffffffffffffffff1681526020019081526020015f205f6101000a81548160ff021916908315150217905550806003015f81548092919061072f90610e8f565b91905055505050565b5f604051905090565b5f80fd5b5f80fd5b5f819050919050565b61075b81610749565b8114610765575f80fd5b50565b5f8135905061077681610752565b92915050565b5f6020828403121561079157610790610741565b5b5f61079e84828501610768565b91505092915050565b5f73ffffffffffffffffffffffffffffffffffffffff82169050919050565b5f6107d0826107a7565b9050919050565b6107e0816107c6565b81146107ea575f80fd5b50565b5f813590506107fb816107d7565b92915050565b5f6020828403121561081657610815610741565b5b5f610823848285016107ed565b91505092915050565b5f8115159050919050565b6108408161082c565b82525050565b5f6020820190506108595f830184610837565b92915050565b610868816107c6565b82525050565b5f6020820190506108815f83018461085f565b92915050565b5f81519050919050565b5f82825260208201905092915050565b8281835e5f83830152505050565b5f601f19601f8301169050919050565b5f6108c982610887565b6108d38185610891565b93506108e38185602086016108a1565b6108ec816108af565b840191505092915050565b61090081610749565b82525050565b5f60a0820190508181035f83015261091e81886108bf565b905061092d60208301876108f7565b61093a604083018661085f565b6109476060830185610837565b61095460808301846108f7565b9695505050505050565b5f6020820190506109715f8301846108f7565b92915050565b5f80fd5b5f80fd5b7f4e487b71000000000000000000000000000000000000000000000000000000005f52604160045260245ffd5b6109b5826108af565b810181811067ffffffffffffffff821117156109d4576109d361097f565b5b80604052505050565b5f6109e6610738565b90506109f282826109ac565b919050565b5f67ffffffffffffffff821115610a1157610a1061097f565b5b610a1a826108af565b9050602081019050919050565b828183375f83830152505050565b5f610a47610a42846109f7565b6109dd565b905082815260208101848484011115610a6357610a6261097b565b5b610a6e848285610a27565b509392505050565b5f82601f830112610a8a57610a89610977565b5b8135610a9a848260208601610a35565b91505092915050565b5f805f60608486031215610aba57610ab9610741565b5b5f84013567ffffffffffffffff811115610ad757610ad6610745565b5b610ae386828701610a76565b9350506020610af486828701610768565b9250506040610b05868287016107ed565b9150509250925092565b7f4e487b71000000000000000000000000000000000000000000000000000000005f52603260045260245ffd5b7f4e487b71000000000000000000000000000000000000000000000000000000005f52601260045260245ffd5b7f4e487b71000000000000000000000000000000000000000000000000000000005f52601160045260245ffd5b5f610ba082610749565b9150610bab83610749565b925082610bbb57610bba610b3c565b5b828204905092915050565b7f4e487b71000000000000000000000000000000000000000000000000000000005f52602260045260245ffd5b5f6002820490506001821680610c0a57607f821691505b602082108103610c1d57610c1c610bc6565b5b50919050565b5f819050815f5260205f209050919050565b5f6020601f8301049050919050565b5f82821b905092915050565b5f60088302610c7f7fffffffffffffffffffffffffffffffffffffffffffffffffffffffffffffffff82610c44565b610c898683610c44565b95508019841693508086168417925050509392505050565b5f819050919050565b5f610cc4610cbf610cba84610749565b610ca1565b610749565b9050919050565b5f819050919050565b610cdd83610caa565b610cf1610ce982610ccb565b848454610c50565b825550505050565b5f90565b610d05610cf9565b610d10818484610cd4565b505050565b5b81811015610d3357610d285f82610cfd565b600181019050610d16565b5050565b601f821115610d7857610d4981610c23565b610d5284610c35565b81016020851015610d61578190505b610d75610d6d85610c35565b830182610d15565b50505b505050565b5f82821c905092915050565b5f610d985f1984600802610d7d565b1980831691505092915050565b5f610db08383610d89565b9150826002028217905092915050565b610dc982610887565b67ffffffffffffffff811115610de257610de161097f565b5b610dec8254610bf3565b610df7828285610d37565b5f60209050601f831160018114610e28575f8415610e16578287015190505b610e208582610da5565b865550610e87565b601f198416610e3686610c23565b5f5b82811015610e5d57848901518255600182019150602085019450602081019050610e38565b86831015610e7a5784890151610e76601f891682610d89565b8355505b6001600288020188555050505b505050505050565b5f610e9982610749565b91507fffffffffffffffffffffffffffffffffffffffffffffffffffffffffffffffff8203610ecb57610eca610b69565b5b60018201905091905056fea2646970667358221220e3c49184e9704e0f4d464c9690148078ffbac0ee8e98c736008194bcdb6a801564736f6c63430008190033a2646970667358221220ab7fd9edd5edcad36dd14e8bb0f39762794e42010faec1ce26a5fbfaa44c171e64736f6c63430008190033","opcodes":"PUSH1 0x80 PUSH1 0x40 MSTORE CALLVALUE DUP1 ISZERO PUSH1 0xE JUMPI PUSH0 DUP1 REVERT JUMPDEST POP PUSH2 0x13FD DUP1 PUSH2 0x1C PUSH0 CODECOPY PUSH0 RETURN INVALID PUSH1 0x80 PUSH1 0x40 MSTORE CALLVALUE DUP1 ISZERO PUSH2 0xF JUMPI PUSH0 DUP1 REVERT JUMPDEST POP PUSH1 0x4 CALLDATASIZE LT PUSH2 0x34 JUMPI PUSH0 CALLDATALOAD PUSH1 0xE0 SHR DUP1 PUSH4 0x4ACB9D4F EQ PUSH2 0x38 JUMPI DUP1 PUSH4 0xA3303A75 EQ PUSH2 0x56 JUMPI JUMPDEST PUSH0 DUP1 REVERT JUMPDEST PUSH2 0x40 PUSH2 0x72 JUMP JUMPDEST PUSH1 0x40 MLOAD PUSH2 0x4D SWAP2 SWAP1 PUSH2 0x289 JUMP JUMPDEST PUSH1 0x40 MLOAD DUP1 SWAP2 SUB SWAP1 RETURN JUMPDEST PUSH2 0x70 PUSH1 0x4 DUP1 CALLDATASIZE SUB DUP2 ADD SWAP1 PUSH2 0x6B SWAP2 SWAP1 PUSH2 0x2E0 JUMP JUMPDEST PUSH2 0xFC JUMP JUMPDEST STOP JUMPDEST PUSH1 0x60 PUSH0 DUP1 SLOAD DUP1 PUSH1 0x20 MUL PUSH1 0x20 ADD PUSH1 0x40 MLOAD SWAP1 DUP2 ADD PUSH1 0x40 MSTORE DUP1 SWAP3 SWAP2 SWAP1 DUP2 DUP2 MSTORE PUSH1 0x20 ADD DUP3 DUP1 SLOAD DUP1 ISZERO PUSH2 0xF2 JUMPI PUSH1 0x20 MUL DUP3 ADD SWAP2 SWAP1 PUSH0 MSTORE PUSH1 0x20 PUSH0 KECCAK256 SWAP1 JUMPDEST DUP2 PUSH0 SWAP1 SLOAD SWAP1 PUSH2 0x100 EXP SWAP1 DIV PUSH20 0xFFFFFFFFFFFFFFFFFFFFFFFFFFFFFFFFFFFFFFFF AND PUSH20 0xFFFFFFFFFFFFFFFFFFFFFFFFFFFFFFFFFFFFFFFF AND DUP2 MSTORE PUSH1 0x20 ADD SWAP1 PUSH1 0x1 ADD SWAP1 DUP1 DUP4 GT PUSH2 0xA9 JUMPI JUMPDEST POP POP POP POP POP SWAP1 POP SWAP1 JUMP JUMPDEST PUSH0 DUP2 CALLER PUSH1 0x40 MLOAD PUSH2 0x10B SWAP1 PUSH2 0x195 JUMP JUMPDEST PUSH2 0x116 SWAP3 SWAP2 SWAP1 PUSH2 0x33A JUMP JUMPDEST PUSH1 0x40 MLOAD DUP1 SWAP2 SUB SWAP1 PUSH0 CREATE DUP1 ISZERO DUP1 ISZERO PUSH2 0x12F JUMPI RETURNDATASIZE PUSH0 DUP1 RETURNDATACOPY RETURNDATASIZE PUSH0 REVERT JUMPDEST POP SWAP1 POP PUSH0 DUP2 SWAP1 DUP1 PUSH1 0x1 DUP2 SLOAD ADD DUP1 DUP3 SSTORE DUP1 SWAP2 POP POP PUSH1 0x1 SWAP1 SUB SWAP1 PUSH0 MSTORE PUSH1 0x20 PUSH0 KECCAK256 ADD PUSH0 SWAP1 SWAP2 SWAP1 SWAP2 SWAP1 SWAP2 PUSH2 0x100 EXP DUP2 SLOAD DUP2 PUSH20 0xFFFFFFFFFFFFFFFFFFFFFFFFFFFFFFFFFFFFFFFF MUL NOT AND SWAP1 DUP4 PUSH20 0xFFFFFFFFFFFFFFFFFFFFFFFFFFFFFFFFFFFFFFFF AND MUL OR SWAP1 SSTORE POP POP POP JUMP JUMPDEST PUSH2 0x1066 DUP1 PUSH2 0x362 DUP4 CODECOPY ADD SWAP1 JUMP JUMPDEST PUSH0 DUP2 MLOAD SWAP1 POP SWAP2 SWAP1 POP JUMP JUMPDEST PUSH0 DUP3 DUP3 MSTORE PUSH1 0x20 DUP3 ADD SWAP1 POP SWAP3 SWAP2 POP POP JUMP JUMPDEST PUSH0 DUP2 SWAP1 POP PUSH1 0x20 DUP3 ADD SWAP1 POP SWAP2 SWAP1 POP JUMP JUMPDEST PUSH0 PUSH20 0xFFFFFFFFFFFFFFFFFFFFFFFFFFFFFFFFFFFFFFFF DUP3 AND SWAP1 POP SWAP2 SWAP1 POP JUMP JUMPDEST PUSH0 PUSH2 0x1F4 DUP3 PUSH2 0x1CB JUMP JUMPDEST SWAP1 POP SWAP2 SWAP1 POP JUMP JUMPDEST PUSH2 0x204 DUP2 PUSH2 0x1EA JUMP JUMPDEST DUP3 MSTORE POP POP JUMP JUMPDEST PUSH0 PUSH2 0x215 DUP4 DUP4 PUSH2 0x1FB JUMP JUMPDEST PUSH1 0x20 DUP4 ADD SWAP1 POP SWAP3 SWAP2 POP POP JUMP JUMPDEST PUSH0 PUSH1 0x20 DUP3 ADD SWAP1 POP SWAP2 SWAP1 POP JUMP JUMPDEST PUSH0 PUSH2 0x237 DUP3 PUSH2 0x1A2 JUMP JUMPDEST PUSH2 0x241 DUP2 DUP6 PUSH2 0x1AC JUMP JUMPDEST SWAP4 POP PUSH2 0x24C DUP4 PUSH2 0x1BC JUMP JUMPDEST DUP1 PUSH0 JUMPDEST DUP4 DUP2 LT ISZERO PUSH2 0x27C JUMPI DUP2 MLOAD PUSH2 0x263 DUP9 DUP3 PUSH2 0x20A JUMP JUMPDEST SWAP8 POP PUSH2 0x26E DUP4 PUSH2 0x221 JUMP JUMPDEST SWAP3 POP POP PUSH1 0x1 DUP2 ADD SWAP1 POP PUSH2 0x24F JUMP JUMPDEST POP DUP6 SWAP4 POP POP POP POP SWAP3 SWAP2 POP POP JUMP JUMPDEST PUSH0 PUSH1 0x20 DUP3 ADD SWAP1 POP DUP2 DUP2 SUB PUSH0 DUP4 ADD MSTORE PUSH2 0x2A1 DUP2 DUP5 PUSH2 0x22D JUMP JUMPDEST SWAP1 POP SWAP3 SWAP2 POP POP JUMP JUMPDEST PUSH0 DUP1 REVERT JUMPDEST PUSH0 DUP2 SWAP1 POP SWAP2 SWAP1 POP JUMP JUMPDEST PUSH2 0x2BF DUP2 PUSH2 0x2AD JUMP JUMPDEST DUP2 EQ PUSH2 0x2C9 JUMPI PUSH0 DUP1 REVERT JUMPDEST POP JUMP JUMPDEST PUSH0 DUP2 CALLDATALOAD SWAP1 POP PUSH2 0x2DA DUP2 PUSH2 0x2B6 JUMP JUMPDEST SWAP3 SWAP2 POP POP JUMP JUMPDEST PUSH0 PUSH1 0x20 DUP3 DUP5 SUB SLT ISZERO PUSH2 0x2F5 JUMPI PUSH2 0x2F4 PUSH2 0x2A9 JUMP JUMPDEST JUMPDEST PUSH0 PUSH2 0x302 DUP5 DUP3 DUP6 ADD PUSH2 0x2CC JUMP JUMPDEST SWAP2 POP POP SWAP3 SWAP2 POP POP JUMP JUMPDEST PUSH2 0x314 DUP2 PUSH2 0x2AD JUMP JUMPDEST DUP3 MSTORE POP POP JUMP JUMPDEST PUSH0 PUSH2 0x324 DUP3 PUSH2 0x1CB JUMP JUMPDEST SWAP1 POP SWAP2 SWAP1 POP JUMP JUMPDEST PUSH2 0x334 DUP2 PUSH2 0x31A JUMP JUMPDEST DUP3 MSTORE POP POP JUMP JUMPDEST PUSH0 PUSH1 0x40 DUP3 ADD SWAP1 POP PUSH2 0x34D PUSH0 DUP4 ADD DUP6 PUSH2 0x30B JUMP JUMPDEST PUSH2 0x35A PUSH1 0x20 DUP4 ADD DUP5 PUSH2 0x32B JUMP JUMPDEST SWAP4 SWAP3 POP POP POP JUMP INVALID PUSH1 0x80 PUSH1 0x40 MSTORE CALLVALUE DUP1 ISZERO PUSH2 0xF JUMPI PUSH0 DUP1 REVERT JUMPDEST POP PUSH1 0x40 MLOAD PUSH2 0x1066 CODESIZE SUB DUP1 PUSH2 0x1066 DUP4 CODECOPY DUP2 DUP2 ADD PUSH1 0x40 MSTORE DUP2 ADD SWAP1 PUSH2 0x31 SWAP2 SWAP1 PUSH2 0x10F JUMP JUMPDEST DUP1 PUSH0 DUP1 PUSH2 0x100 EXP DUP2 SLOAD DUP2 PUSH20 0xFFFFFFFFFFFFFFFFFFFFFFFFFFFFFFFFFFFFFFFF MUL NOT AND SWAP1 DUP4 PUSH20 0xFFFFFFFFFFFFFFFFFFFFFFFFFFFFFFFFFFFFFFFF AND MUL OR SWAP1 SSTORE POP DUP2 PUSH1 0x1 DUP2 SWAP1 SSTORE POP POP POP PUSH2 0x14D JUMP JUMPDEST PUSH0 DUP1 REVERT JUMPDEST PUSH0 DUP2 SWAP1 POP SWAP2 SWAP1 POP JUMP JUMPDEST PUSH2 0x94 DUP2 PUSH2 0x82 JUMP JUMPDEST DUP2 EQ PUSH2 0x9E JUMPI PUSH0 DUP1 REVERT JUMPDEST POP JUMP JUMPDEST PUSH0 DUP2 MLOAD SWAP1 POP PUSH2 0xAF DUP2 PUSH2 0x8B JUMP JUMPDEST SWAP3 SWAP2 POP POP JUMP JUMPDEST PUSH0 PUSH20 0xFFFFFFFFFFFFFFFFFFFFFFFFFFFFFFFFFFFFFFFF DUP3 AND SWAP1 POP SWAP2 SWAP1 POP JUMP JUMPDEST PUSH0 PUSH2 0xDE DUP3 PUSH2 0xB5 JUMP JUMPDEST SWAP1 POP SWAP2 SWAP1 POP JUMP JUMPDEST PUSH2 0xEE DUP2 PUSH2 0xD4 JUMP JUMPDEST DUP2 EQ PUSH2 0xF8 JUMPI PUSH0 DUP1 REVERT JUMPDEST POP JUMP JUMPDEST PUSH0 DUP2 MLOAD SWAP1 POP PUSH2 0x109 DUP2 PUSH2 0xE5 JUMP JUMPDEST SWAP3 SWAP2 POP POP JUMP JUMPDEST PUSH0 DUP1 PUSH1 0x40 DUP4 DUP6 SUB SLT ISZERO PUSH2 0x125 JUMPI PUSH2 0x124 PUSH2 0x7E JUMP JUMPDEST JUMPDEST PUSH0 PUSH2 0x132 DUP6 DUP3 DUP7 ADD PUSH2 0xA1 JUMP JUMPDEST SWAP3 POP POP PUSH1 0x20 PUSH2 0x143 DUP6 DUP3 DUP7 ADD PUSH2 0xFB JUMP JUMPDEST SWAP2 POP POP SWAP3 POP SWAP3 SWAP1 POP JUMP JUMPDEST PUSH2 0xF0C DUP1 PUSH2 0x15A PUSH0 CODECOPY PUSH0 RETURN INVALID PUSH1 0x80 PUSH1 0x40 MSTORE PUSH1 0x4 CALLDATASIZE LT PUSH2 0x85 JUMPI PUSH0 CALLDATALOAD PUSH1 0xE0 SHR DUP1 PUSH4 0x82FDE093 GT PUSH2 0x58 JUMPI DUP1 PUSH4 0x82FDE093 EQ PUSH2 0x157 JUMPI DUP1 PUSH4 0x8A9CFD55 EQ PUSH2 0x181 JUMPI DUP1 PUSH4 0x937E09B1 EQ PUSH2 0x1A9 JUMPI DUP1 PUSH4 0xD7BB99BA EQ PUSH2 0x1D3 JUMPI DUP1 PUSH4 0xD7D1BBDB EQ PUSH2 0x1DD JUMPI PUSH2 0x85 JUMP JUMPDEST DUP1 PUSH4 0x3441006 EQ PUSH2 0x89 JUMPI DUP1 PUSH4 0xA144391 EQ PUSH2 0xB1 JUMPI DUP1 PUSH4 0x481C6A75 EQ PUSH2 0xED JUMPI DUP1 PUSH4 0x81D12C58 EQ PUSH2 0x117 JUMPI JUMPDEST PUSH0 DUP1 REVERT JUMPDEST CALLVALUE DUP1 ISZERO PUSH2 0x94 JUMPI PUSH0 DUP1 REVERT JUMPDEST POP PUSH2 0xAF PUSH1 0x4 DUP1 CALLDATASIZE SUB DUP2 ADD SWAP1 PUSH2 0xAA SWAP2 SWAP1 PUSH2 0x77C JUMP JUMPDEST PUSH2 0x205 JUMP JUMPDEST STOP JUMPDEST CALLVALUE DUP1 ISZERO PUSH2 0xBC JUMPI PUSH0 DUP1 REVERT JUMPDEST POP PUSH2 0xD7 PUSH1 0x4 DUP1 CALLDATASIZE SUB DUP2 ADD SWAP1 PUSH2 0xD2 SWAP2 SWAP1 PUSH2 0x801 JUMP JUMPDEST PUSH2 0x342 JUMP JUMPDEST PUSH1 0x40 MLOAD PUSH2 0xE4 SWAP2 SWAP1 PUSH2 0x846 JUMP JUMPDEST PUSH1 0x40 MLOAD DUP1 SWAP2 SUB SWAP1 RETURN JUMPDEST CALLVALUE DUP1 ISZERO PUSH2 0xF8 JUMPI PUSH0 DUP1 REVERT JUMPDEST POP PUSH2 0x101 PUSH2 0x35F JUMP JUMPDEST PUSH1 0x40 MLOAD PUSH2 0x10E SWAP2 SWAP1 PUSH2 0x86E JUMP JUMPDEST PUSH1 0x40 MLOAD DUP1 SWAP2 SUB SWAP1 RETURN JUMPDEST CALLVALUE DUP1 ISZERO PUSH2 0x122 JUMPI PUSH0 DUP1 REVERT JUMPDEST POP PUSH2 0x13D PUSH1 0x4 DUP1 CALLDATASIZE SUB DUP2 ADD SWAP1 PUSH2 0x138 SWAP2 SWAP1 PUSH2 0x77C JUMP JUMPDEST PUSH2 0x382 JUMP JUMPDEST PUSH1 0x40 MLOAD PUSH2 0x14E SWAP6 SWAP5 SWAP4 SWAP3 SWAP2 SWAP1 PUSH2 0x906 JUMP JUMPDEST PUSH1 0x40 MLOAD DUP1 SWAP2 SUB SWAP1 RETURN JUMPDEST CALLVALUE DUP1 ISZERO PUSH2 0x162 JUMPI PUSH0 DUP1 REVERT JUMPDEST POP PUSH2 0x16B PUSH2 0x475 JUMP JUMPDEST PUSH1 0x40 MLOAD PUSH2 0x178 SWAP2 SWAP1 PUSH2 0x95E JUMP JUMPDEST PUSH1 0x40 MLOAD DUP1 SWAP2 SUB SWAP1 RETURN JUMPDEST CALLVALUE DUP1 ISZERO PUSH2 0x18C JUMPI PUSH0 DUP1 REVERT JUMPDEST POP PUSH2 0x1A7 PUSH1 0x4 DUP1 CALLDATASIZE SUB DUP2 ADD SWAP1 PUSH2 0x1A2 SWAP2 SWAP1 PUSH2 0xAA3 JUMP JUMPDEST PUSH2 0x47B JUMP JUMPDEST STOP JUMPDEST CALLVALUE DUP1 ISZERO PUSH2 0x1B4 JUMPI PUSH0 DUP1 REVERT JUMPDEST POP PUSH2 0x1BD PUSH2 0x579 JUMP JUMPDEST PUSH1 0x40 MLOAD PUSH2 0x1CA SWAP2 SWAP1 PUSH2 0x95E JUMP JUMPDEST PUSH1 0x40 MLOAD DUP1 SWAP2 SUB SWAP1 RETURN JUMPDEST PUSH2 0x1DB PUSH2 0x57F JUMP JUMPDEST STOP JUMPDEST CALLVALUE DUP1 ISZERO PUSH2 0x1E8 JUMPI PUSH0 DUP1 REVERT JUMPDEST POP PUSH2 0x203 PUSH1 0x4 DUP1 CALLDATASIZE SUB DUP2 ADD SWAP1 PUSH2 0x1FE SWAP2 SWAP1 PUSH2 0x77C JUMP JUMPDEST PUSH2 0x5FA JUMP JUMPDEST STOP JUMPDEST PUSH0 DUP1 SLOAD SWAP1 PUSH2 0x100 EXP SWAP1 DIV PUSH20 0xFFFFFFFFFFFFFFFFFFFFFFFFFFFFFFFFFFFFFFFF AND PUSH20 0xFFFFFFFFFFFFFFFFFFFFFFFFFFFFFFFFFFFFFFFF AND CALLER PUSH20 0xFFFFFFFFFFFFFFFFFFFFFFFFFFFFFFFFFFFFFFFF AND EQ PUSH2 0x25B JUMPI PUSH0 DUP1 REVERT JUMPDEST PUSH0 PUSH1 0x2 DUP3 DUP2 SLOAD DUP2 LT PUSH2 0x270 JUMPI PUSH2 0x26F PUSH2 0xB0F JUMP JUMPDEST JUMPDEST SWAP1 PUSH0 MSTORE PUSH1 0x20 PUSH0 KECCAK256 SWAP1 PUSH1 0x5 MUL ADD SWAP1 POP DUP1 PUSH1 0x2 ADD PUSH1 0x14 SWAP1 SLOAD SWAP1 PUSH2 0x100 EXP SWAP1 DIV PUSH1 0xFF AND ISZERO PUSH2 0x299 JUMPI PUSH0 DUP1 REVERT JUMPDEST PUSH1 0x2 PUSH1 0x4 SLOAD PUSH2 0x2A8 SWAP2 SWAP1 PUSH2 0xB96 JUMP JUMPDEST DUP2 PUSH1 0x3 ADD SLOAD GT PUSH2 0x2B6 JUMPI PUSH0 DUP1 REVERT JUMPDEST DUP1 PUSH1 0x2 ADD PUSH0 SWAP1 SLOAD SWAP1 PUSH2 0x100 EXP SWAP1 DIV PUSH20 0xFFFFFFFFFFFFFFFFFFFFFFFFFFFFFFFFFFFFFFFF AND PUSH20 0xFFFFFFFFFFFFFFFFFFFFFFFFFFFFFFFFFFFFFFFF AND PUSH2 0x8FC DUP3 PUSH1 0x1 ADD SLOAD SWAP1 DUP2 ISZERO MUL SWAP1 PUSH1 0x40 MLOAD PUSH0 PUSH1 0x40 MLOAD DUP1 DUP4 SUB DUP2 DUP6 DUP9 DUP9 CALL SWAP4 POP POP POP POP ISZERO DUP1 ISZERO PUSH2 0x320 JUMPI RETURNDATASIZE PUSH0 DUP1 RETURNDATACOPY RETURNDATASIZE PUSH0 REVERT JUMPDEST POP PUSH1 0x1 DUP2 PUSH1 0x2 ADD PUSH1 0x14 PUSH2 0x100 EXP DUP2 SLOAD DUP2 PUSH1 0xFF MUL NOT AND SWAP1 DUP4 ISZERO ISZERO MUL OR SWAP1 SSTORE POP POP POP JUMP JUMPDEST PUSH1 0x3 PUSH1 0x20 MSTORE DUP1 PUSH0 MSTORE PUSH1 0x40 PUSH0 KECCAK256 PUSH0 SWAP2 POP SLOAD SWAP1 PUSH2 0x100 EXP SWAP1 DIV PUSH1 0xFF AND DUP2 JUMP JUMPDEST PUSH0 DUP1 SLOAD SWAP1 PUSH2 0x100 EXP SWAP1 DIV PUSH20 0xFFFFFFFFFFFFFFFFFFFFFFFFFFFFFFFFFFFFFFFF AND DUP2 JUMP JUMPDEST PUSH1 0x2 DUP2 DUP2 SLOAD DUP2 LT PUSH2 0x391 JUMPI PUSH0 DUP1 REVERT JUMPDEST SWAP1 PUSH0 MSTORE PUSH1 0x20 PUSH0 KECCAK256 SWAP1 PUSH1 0x5 MUL ADD PUSH0 SWAP2 POP SWAP1 POP DUP1 PUSH0 ADD DUP1 SLOAD PUSH2 0x3B0 SWAP1 PUSH2 0xBF3 JUMP JUMPDEST DUP1 PUSH1 0x1F ADD PUSH1 0x20 DUP1 SWAP2 DIV MUL PUSH1 0x20 ADD PUSH1 0x40 MLOAD SWAP1 DUP2 ADD PUSH1 0x40 MSTORE DUP1 SWAP3 SWAP2 SWAP1 DUP2 DUP2 MSTORE PUSH1 0x20 ADD DUP3 DUP1 SLOAD PUSH2 0x3DC SWAP1 PUSH2 0xBF3 JUMP JUMPDEST DUP1 ISZERO PUSH2 0x427 JUMPI DUP1 PUSH1 0x1F LT PUSH2 0x3FE JUMPI PUSH2 0x100 DUP1 DUP4 SLOAD DIV MUL DUP4 MSTORE SWAP2 PUSH1 0x20 ADD SWAP2 PUSH2 0x427 JUMP JUMPDEST DUP3 ADD SWAP2 SWAP1 PUSH0 MSTORE PUSH1 0x20 PUSH0 KECCAK256 SWAP1 JUMPDEST DUP2 SLOAD DUP2 MSTORE SWAP1 PUSH1 0x1 ADD SWAP1 PUSH1 0x20 ADD DUP1 DUP4 GT PUSH2 0x40A JUMPI DUP3 SWAP1 SUB PUSH1 0x1F AND DUP3 ADD SWAP2 JUMPDEST POP POP POP POP POP SWAP1 DUP1 PUSH1 0x1 ADD SLOAD SWAP1 DUP1 PUSH1 0x2 ADD PUSH0 SWAP1 SLOAD SWAP1 PUSH2 0x100 EXP SWAP1 DIV PUSH20 0xFFFFFFFFFFFFFFFFFFFFFFFFFFFFFFFFFFFFFFFF AND SWAP1 DUP1 PUSH1 0x2 ADD PUSH1 0x14 SWAP1 SLOAD SWAP1 PUSH2 0x100 EXP SWAP1 DIV PUSH1 0xFF AND SWAP1 DUP1 PUSH1 0x3 ADD SLOAD SWAP1 POP DUP6 JUMP JUMPDEST PUSH1 0x4 SLOAD DUP2 JUMP JUMPDEST PUSH0 DUP1 SLOAD SWAP1 PUSH2 0x100 EXP SWAP1 DIV PUSH20 0xFFFFFFFFFFFFFFFFFFFFFFFFFFFFFFFFFFFFFFFF AND PUSH20 0xFFFFFFFFFFFFFFFFFFFFFFFFFFFFFFFFFFFFFFFF AND CALLER PUSH20 0xFFFFFFFFFFFFFFFFFFFFFFFFFFFFFFFFFFFFFFFF AND EQ PUSH2 0x4D1 JUMPI PUSH0 DUP1 REVERT JUMPDEST PUSH0 PUSH1 0x2 PUSH1 0x1 DUP2 PUSH1 0x1 DUP2 SLOAD ADD DUP1 DUP3 SSTORE DUP1 SWAP2 POP POP SUB SWAP1 PUSH0 MSTORE PUSH1 0x20 PUSH0 KECCAK256 SWAP1 PUSH1 0x5 MUL ADD SWAP1 POP DUP4 DUP2 PUSH0 ADD SWAP1 DUP2 PUSH2 0x502 SWAP2 SWAP1 PUSH2 0xDC0 JUMP JUMPDEST POP DUP3 DUP2 PUSH1 0x1 ADD DUP2 SWAP1 SSTORE POP DUP2 DUP2 PUSH1 0x2 ADD PUSH0 PUSH2 0x100 EXP DUP2 SLOAD DUP2 PUSH20 0xFFFFFFFFFFFFFFFFFFFFFFFFFFFFFFFFFFFFFFFF MUL NOT AND SWAP1 DUP4 PUSH20 0xFFFFFFFFFFFFFFFFFFFFFFFFFFFFFFFFFFFFFFFF AND MUL OR SWAP1 SSTORE POP PUSH0 DUP2 PUSH1 0x2 ADD PUSH1 0x14 PUSH2 0x100 EXP DUP2 SLOAD DUP2 PUSH1 0xFF MUL NOT AND SWAP1 DUP4 ISZERO ISZERO MUL OR SWAP1 SSTORE POP PUSH0 DUP2 PUSH1 0x3 ADD DUP2 SWAP1 SSTORE POP POP POP POP POP JUMP JUMPDEST PUSH1 0x1 SLOAD DUP2 JUMP JUMPDEST PUSH1 0x1 SLOAD CALLVALUE GT PUSH2 0x58C JUMPI PUSH0 DUP1 REVERT JUMPDEST PUSH1 0x1 PUSH1 0x3 PUSH0 CALLER PUSH20 0xFFFFFFFFFFFFFFFFFFFFFFFFFFFFFFFFFFFFFFFF AND PUSH20 0xFFFFFFFFFFFFFFFFFFFFFFFFFFFFFFFFFFFFFFFF AND DUP2 MSTORE PUSH1 0x20 ADD SWAP1 DUP2 MSTORE PUSH1 0x20 ADD PUSH0 KECCAK256 PUSH0 PUSH2 0x100 EXP DUP2 SLOAD DUP2 PUSH1 0xFF MUL NOT AND SWAP1 DUP4 ISZERO ISZERO MUL OR SWAP1 SSTORE POP PUSH1 0x4 PUSH0 DUP2 SLOAD DUP1 SWAP3 SWAP2 SWAP1 PUSH2 0x5F3 SWAP1 PUSH2 0xE8F JUMP JUMPDEST SWAP2 SWAP1 POP SSTORE POP JUMP JUMPDEST PUSH1 0x3 PUSH0 CALLER PUSH20 0xFFFFFFFFFFFFFFFFFFFFFFFFFFFFFFFFFFFFFFFF AND PUSH20 0xFFFFFFFFFFFFFFFFFFFFFFFFFFFFFFFFFFFFFFFF AND DUP2 MSTORE PUSH1 0x20 ADD SWAP1 DUP2 MSTORE PUSH1 0x20 ADD PUSH0 KECCAK256 PUSH0 SWAP1 SLOAD SWAP1 PUSH2 0x100 EXP SWAP1 DIV PUSH1 0xFF AND PUSH2 0x64C JUMPI PUSH0 DUP1 REVERT JUMPDEST PUSH0 PUSH1 0x2 DUP3 DUP2 SLOAD DUP2 LT PUSH2 0x661 JUMPI PUSH2 0x660 PUSH2 0xB0F JUMP JUMPDEST JUMPDEST SWAP1 PUSH0 MSTORE PUSH1 0x20 PUSH0 KECCAK256 SWAP1 PUSH1 0x5 MUL ADD SWAP1 POP DUP1 PUSH1 0x4 ADD PUSH0 CALLER PUSH20 0xFFFFFFFFFFFFFFFFFFFFFFFFFFFFFFFFFFFFFFFF AND PUSH20 0xFFFFFFFFFFFFFFFFFFFFFFFFFFFFFFFFFFFFFFFF AND DUP2 MSTORE PUSH1 0x20 ADD SWAP1 DUP2 MSTORE PUSH1 0x20 ADD PUSH0 KECCAK256 PUSH0 SWAP1 SLOAD SWAP1 PUSH2 0x100 EXP SWAP1 DIV PUSH1 0xFF AND ISZERO PUSH2 0x6C4 JUMPI PUSH0 DUP1 REVERT JUMPDEST PUSH1 0x1 DUP2 PUSH1 0x4 ADD PUSH0 CALLER PUSH20 0xFFFFFFFFFFFFFFFFFFFFFFFFFFFFFFFFFFFFFFFF AND PUSH20 0xFFFFFFFFFFFFFFFFFFFFFFFFFFFFFFFFFFFFFFFF AND DUP2 MSTORE PUSH1 0x20 ADD SWAP1 DUP2 MSTORE PUSH1 0x20 ADD PUSH0 KECCAK256 PUSH0 PUSH2 0x100 EXP DUP2 SLOAD DUP2 PUSH1 0xFF MUL NOT AND SWAP1 DUP4 ISZERO ISZERO MUL OR SWAP1 SSTORE POP DUP1 PUSH1 0x3 ADD PUSH0 DUP2 SLOAD DUP1 SWAP3 SWAP2 SWAP1 PUSH2 0x72F SWAP1 PUSH2 0xE8F JUMP JUMPDEST SWAP2 SWAP1 POP SSTORE POP POP POP JUMP JUMPDEST PUSH0 PUSH1 0x40 MLOAD SWAP1 POP SWAP1 JUMP JUMPDEST PUSH0 DUP1 REVERT JUMPDEST PUSH0 DUP1 REVERT JUMPDEST PUSH0 DUP2 SWAP1 POP SWAP2 SWAP1 POP JUMP JUMPDEST PUSH2 0x75B DUP2 PUSH2 0x749 JUMP JUMPDEST DUP2 EQ PUSH2 0x765 JUMPI PUSH0 DUP1 REVERT JUMPDEST POP JUMP JUMPDEST PUSH0 DUP2 CALLDATALOAD SWAP1 POP PUSH2 0x776 DUP2 PUSH2 0x752 JUMP JUMPDEST SWAP3 SWAP2 POP POP JUMP JUMPDEST PUSH0 PUSH1 0x20 DUP3 DUP5 SUB SLT ISZERO PUSH2 0x791 JUMPI PUSH2 0x790 PUSH2 0x741 JUMP JUMPDEST JUMPDEST PUSH0 PUSH2 0x79E DUP5 DUP3 DUP6 ADD PUSH2 0x768 JUMP JUMPDEST SWAP2 POP POP SWAP3 SWAP2 POP POP JUMP JUMPDEST PUSH0 PUSH20 0xFFFFFFFFFFFFFFFFFFFFFFFFFFFFFFFFFFFFFFFF DUP3 AND SWAP1 POP SWAP2 SWAP1 POP JUMP JUMPDEST PUSH0 PUSH2 0x7D0 DUP3 PUSH2 0x7A7 JUMP JUMPDEST SWAP1 POP SWAP2 SWAP1 POP JUMP JUMPDEST PUSH2 0x7E0 DUP2 PUSH2 0x7C6 JUMP JUMPDEST DUP2 EQ PUSH2 0x7EA JUMPI PUSH0 DUP1 REVERT JUMPDEST POP JUMP JUMPDEST PUSH0 DUP2 CALLDATALOAD SWAP1 POP PUSH2 0x7FB DUP2 PUSH2 0x7D7 JUMP JUMPDEST SWAP3 SWAP2 POP POP JUMP JUMPDEST PUSH0 PUSH1 0x20 DUP3 DUP5 SUB SLT ISZERO PUSH2 0x816 JUMPI PUSH2 0x815 PUSH2 0x741 JUMP JUMPDEST JUMPDEST PUSH0 PUSH2 0x823 DUP5 DUP3 DUP6 ADD PUSH2 0x7ED JUMP JUMPDEST SWAP2 POP POP SWAP3 SWAP2 POP POP JUMP JUMPDEST PUSH0 DUP2 ISZERO ISZERO SWAP1 POP SWAP2 SWAP1 POP JUMP JUMPDEST PUSH2 0x840 DUP2 PUSH2 0x82C JUMP JUMPDEST DUP3 MSTORE POP POP JUMP JUMPDEST PUSH0 PUSH1 0x20 DUP3 ADD SWAP1 POP PUSH2 0x859 PUSH0 DUP4 ADD DUP5 PUSH2 0x837 JUMP JUMPDEST SWAP3 SWAP2 POP POP JUMP JUMPDEST PUSH2 0x868 DUP2 PUSH2 0x7C6 JUMP JUMPDEST DUP3 MSTORE POP POP JUMP JUMPDEST PUSH0 PUSH1 0x20 DUP3 ADD SWAP1 POP PUSH2 0x881 PUSH0 DUP4 ADD DUP5 PUSH2 0x85F JUMP JUMPDEST SWAP3 SWAP2 POP POP JUMP JUMPDEST PUSH0 DUP2 MLOAD SWAP1 POP SWAP2 SWAP1 POP JUMP JUMPDEST PUSH0 DUP3 DUP3 MSTORE PUSH1 0x20 DUP3 ADD SWAP1 POP SWAP3 SWAP2 POP POP JUMP JUMPDEST DUP3 DUP2 DUP4 MCOPY PUSH0 DUP4 DUP4 ADD MSTORE POP POP POP JUMP JUMPDEST PUSH0 PUSH1 0x1F NOT PUSH1 0x1F DUP4 ADD AND SWAP1 POP SWAP2 SWAP1 POP JUMP JUMPDEST PUSH0 PUSH2 0x8C9 DUP3 PUSH2 0x887 JUMP JUMPDEST PUSH2 0x8D3 DUP2 DUP6 PUSH2 0x891 JUMP JUMPDEST SWAP4 POP PUSH2 0x8E3 DUP2 DUP6 PUSH1 0x20 DUP7 ADD PUSH2 0x8A1 JUMP JUMPDEST PUSH2 0x8EC DUP2 PUSH2 0x8AF JUMP JUMPDEST DUP5 ADD SWAP2 POP POP SWAP3 SWAP2 POP POP JUMP JUMPDEST PUSH2 0x900 DUP2 PUSH2 0x749 JUMP JUMPDEST DUP3 MSTORE POP POP JUMP JUMPDEST PUSH0 PUSH1 0xA0 DUP3 ADD SWAP1 POP DUP2 DUP2 SUB PUSH0 DUP4 ADD MSTORE PUSH2 0x91E DUP2 DUP9 PUSH2 0x8BF JUMP JUMPDEST SWAP1 POP PUSH2 0x92D PUSH1 0x20 DUP4 ADD DUP8 PUSH2 0x8F7 JUMP JUMPDEST PUSH2 0x93A PUSH1 0x40 DUP4 ADD DUP7 PUSH2 0x85F JUMP JUMPDEST PUSH2 0x947 PUSH1 0x60 DUP4 ADD DUP6 PUSH2 0x837 JUMP JUMPDEST PUSH2 0x954 PUSH1 0x80 DUP4 ADD DUP5 PUSH2 0x8F7 JUMP JUMPDEST SWAP7 SWAP6 POP POP POP POP POP POP JUMP JUMPDEST PUSH0 PUSH1 0x20 DUP3 ADD SWAP1 POP PUSH2 0x971 PUSH0 DUP4 ADD DUP5 PUSH2 0x8F7 JUMP JUMPDEST SWAP3 SWAP2 POP POP JUMP JUMPDEST PUSH0 DUP1 REVERT JUMPDEST PUSH0 DUP1 REVERT JUMPDEST PUSH32 0x4E487B7100000000000000000000000000000000000000000000000000000000 PUSH0 MSTORE PUSH1 0x41 PUSH1 0x4 MSTORE PUSH1 0x24 PUSH0 REVERT JUMPDEST PUSH2 0x9B5 DUP3 PUSH2 0x8AF JUMP JUMPDEST DUP2 ADD DUP2 DUP2 LT PUSH8 0xFFFFFFFFFFFFFFFF DUP3 GT OR ISZERO PUSH2 0x9D4 JUMPI PUSH2 0x9D3 PUSH2 0x97F JUMP JUMPDEST JUMPDEST DUP1 PUSH1 0x40 MSTORE POP POP POP JUMP JUMPDEST PUSH0 PUSH2 0x9E6 PUSH2 0x738 JUMP JUMPDEST SWAP1 POP PUSH2 0x9F2 DUP3 DUP3 PUSH2 0x9AC JUMP JUMPDEST SWAP2 SWAP1 POP JUMP JUMPDEST PUSH0 PUSH8 0xFFFFFFFFFFFFFFFF DUP3 GT ISZERO PUSH2 0xA11 JUMPI PUSH2 0xA10 PUSH2 0x97F JUMP JUMPDEST JUMPDEST PUSH2 0xA1A DUP3 PUSH2 0x8AF JUMP JUMPDEST SWAP1 POP PUSH1 0x20 DUP2 ADD SWAP1 POP SWAP2 SWAP1 POP JUMP JUMPDEST DUP3 DUP2 DUP4 CALLDATACOPY PUSH0 DUP4 DUP4 ADD MSTORE POP POP POP JUMP JUMPDEST PUSH0 PUSH2 0xA47 PUSH2 0xA42 DUP5 PUSH2 0x9F7 JUMP JUMPDEST PUSH2 0x9DD JUMP JUMPDEST SWAP1 POP DUP3 DUP2 MSTORE PUSH1 0x20 DUP2 ADD DUP5 DUP5 DUP5 ADD GT ISZERO PUSH2 0xA63 JUMPI PUSH2 0xA62 PUSH2 0x97B JUMP JUMPDEST JUMPDEST PUSH2 0xA6E DUP5 DUP3 DUP6 PUSH2 0xA27 JUMP JUMPDEST POP SWAP4 SWAP3 POP POP POP JUMP JUMPDEST PUSH0 DUP3 PUSH1 0x1F DUP4 ADD SLT PUSH2 0xA8A JUMPI PUSH2 0xA89 PUSH2 0x977 JUMP JUMPDEST JUMPDEST DUP2 CALLDATALOAD PUSH2 0xA9A DUP5 DUP3 PUSH1 0x20 DUP7 ADD PUSH2 0xA35 JUMP JUMPDEST SWAP2 POP POP SWAP3 SWAP2 POP POP JUMP JUMPDEST PUSH0 DUP1 PUSH0 PUSH1 0x60 DUP5 DUP7 SUB SLT ISZERO PUSH2 0xABA JUMPI PUSH2 0xAB9 PUSH2 0x741 JUMP JUMPDEST JUMPDEST PUSH0 DUP5 ADD CALLDATALOAD PUSH8 0xFFFFFFFFFFFFFFFF DUP2 GT ISZERO PUSH2 0xAD7 JUMPI PUSH2 0xAD6 PUSH2 0x745 JUMP JUMPDEST JUMPDEST PUSH2 0xAE3 DUP7 DUP3 DUP8 ADD PUSH2 0xA76 JUMP JUMPDEST SWAP4 POP POP PUSH1 0x20 PUSH2 0xAF4 DUP7 DUP3 DUP8 ADD PUSH2 0x768 JUMP JUMPDEST SWAP3 POP POP PUSH1 0x40 PUSH2 0xB05 DUP7 DUP3 DUP8 ADD PUSH2 0x7ED JUMP JUMPDEST SWAP2 POP POP SWAP3 POP SWAP3 POP SWAP3 JUMP JUMPDEST PUSH32 0x4E487B7100000000000000000000000000000000000000000000000000000000 PUSH0 MSTORE PUSH1 0x32 PUSH1 0x4 MSTORE PUSH1 0x24 PUSH0 REVERT JUMPDEST PUSH32 0x4E487B7100000000000000000000000000000000000000000000000000000000 PUSH0 MSTORE PUSH1 0x12 PUSH1 0x4 MSTORE PUSH1 0x24 PUSH0 REVERT JUMPDEST PUSH32 0x4E487B7100000000000000000000000000000000000000000000000000000000 PUSH0 MSTORE PUSH1 0x11 PUSH1 0x4 MSTORE PUSH1 0x24 PUSH0 REVERT JUMPDEST PUSH0 PUSH2 0xBA0 DUP3 PUSH2 0x749 JUMP JUMPDEST SWAP2 POP PUSH2 0xBAB DUP4 PUSH2 0x749 JUMP JUMPDEST SWAP3 POP DUP3 PUSH2 0xBBB JUMPI PUSH2 0xBBA PUSH2 0xB3C JUMP JUMPDEST JUMPDEST DUP3 DUP3 DIV SWAP1 POP SWAP3 SWAP2 POP POP JUMP JUMPDEST PUSH32 0x4E487B7100000000000000000000000000000000000000000000000000000000 PUSH0 MSTORE PUSH1 0x22 PUSH1 0x4 MSTORE PUSH1 0x24 PUSH0 REVERT JUMPDEST PUSH0 PUSH1 0x2 DUP3 DIV SWAP1 POP PUSH1 0x1 DUP3 AND DUP1 PUSH2 0xC0A JUMPI PUSH1 0x7F DUP3 AND SWAP2 POP JUMPDEST PUSH1 0x20 DUP3 LT DUP2 SUB PUSH2 0xC1D JUMPI PUSH2 0xC1C PUSH2 0xBC6 JUMP JUMPDEST JUMPDEST POP SWAP2 SWAP1 POP JUMP JUMPDEST PUSH0 DUP2 SWAP1 POP DUP2 PUSH0 MSTORE PUSH1 0x20 PUSH0 KECCAK256 SWAP1 POP SWAP2 SWAP1 POP JUMP JUMPDEST PUSH0 PUSH1 0x20 PUSH1 0x1F DUP4 ADD DIV SWAP1 POP SWAP2 SWAP1 POP JUMP JUMPDEST PUSH0 DUP3 DUP3 SHL SWAP1 POP SWAP3 SWAP2 POP POP JUMP JUMPDEST PUSH0 PUSH1 0x8 DUP4 MUL PUSH2 0xC7F PUSH32 0xFFFFFFFFFFFFFFFFFFFFFFFFFFFFFFFFFFFFFFFFFFFFFFFFFFFFFFFFFFFFFFFF DUP3 PUSH2 0xC44 JUMP JUMPDEST PUSH2 0xC89 DUP7 DUP4 PUSH2 0xC44 JUMP JUMPDEST SWAP6 POP DUP1 NOT DUP5 AND SWAP4 POP DUP1 DUP7 AND DUP5 OR SWAP3 POP POP POP SWAP4 SWAP3 POP POP POP JUMP JUMPDEST PUSH0 DUP2 SWAP1 POP SWAP2 SWAP1 POP JUMP JUMPDEST PUSH0 PUSH2 0xCC4 PUSH2 0xCBF PUSH2 0xCBA DUP5 PUSH2 0x749 JUMP JUMPDEST PUSH2 0xCA1 JUMP JUMPDEST PUSH2 0x749 JUMP JUMPDEST SWAP1 POP SWAP2 SWAP1 POP JUMP JUMPDEST PUSH0 DUP2 SWAP1 POP SWAP2 SWAP1 POP JUMP JUMPDEST PUSH2 0xCDD DUP4 PUSH2 0xCAA JUMP JUMPDEST PUSH2 0xCF1 PUSH2 0xCE9 DUP3 PUSH2 0xCCB JUMP JUMPDEST DUP5 DUP5 SLOAD PUSH2 0xC50 JUMP JUMPDEST DUP3 SSTORE POP POP POP POP JUMP JUMPDEST PUSH0 SWAP1 JUMP JUMPDEST PUSH2 0xD05 PUSH2 0xCF9 JUMP JUMPDEST PUSH2 0xD10 DUP2 DUP5 DUP5 PUSH2 0xCD4 JUMP JUMPDEST POP POP POP JUMP JUMPDEST JUMPDEST DUP2 DUP2 LT ISZERO PUSH2 0xD33 JUMPI PUSH2 0xD28 PUSH0 DUP3 PUSH2 0xCFD JUMP JUMPDEST PUSH1 0x1 DUP2 ADD SWAP1 POP PUSH2 0xD16 JUMP JUMPDEST POP POP JUMP JUMPDEST PUSH1 0x1F DUP3 GT ISZERO PUSH2 0xD78 JUMPI PUSH2 0xD49 DUP2 PUSH2 0xC23 JUMP JUMPDEST PUSH2 0xD52 DUP5 PUSH2 0xC35 JUMP JUMPDEST DUP2 ADD PUSH1 0x20 DUP6 LT ISZERO PUSH2 0xD61 JUMPI DUP2 SWAP1 POP JUMPDEST PUSH2 0xD75 PUSH2 0xD6D DUP6 PUSH2 0xC35 JUMP JUMPDEST DUP4 ADD DUP3 PUSH2 0xD15 JUMP JUMPDEST POP POP JUMPDEST POP POP POP JUMP JUMPDEST PUSH0 DUP3 DUP3 SHR SWAP1 POP SWAP3 SWAP2 POP POP JUMP JUMPDEST PUSH0 PUSH2 0xD98 PUSH0 NOT DUP5 PUSH1 0x8 MUL PUSH2 0xD7D JUMP JUMPDEST NOT DUP1 DUP4 AND SWAP2 POP POP SWAP3 SWAP2 POP POP JUMP JUMPDEST PUSH0 PUSH2 0xDB0 DUP4 DUP4 PUSH2 0xD89 JUMP JUMPDEST SWAP2 POP DUP3 PUSH1 0x2 MUL DUP3 OR SWAP1 POP SWAP3 SWAP2 POP POP JUMP JUMPDEST PUSH2 0xDC9 DUP3 PUSH2 0x887 JUMP JUMPDEST PUSH8 0xFFFFFFFFFFFFFFFF DUP2 GT ISZERO PUSH2 0xDE2 JUMPI PUSH2 0xDE1 PUSH2 0x97F JUMP JUMPDEST JUMPDEST PUSH2 0xDEC DUP3 SLOAD PUSH2 0xBF3 JUMP JUMPDEST PUSH2 0xDF7 DUP3 DUP3 DUP6 PUSH2 0xD37 JUMP JUMPDEST PUSH0 PUSH1 0x20 SWAP1 POP PUSH1 0x1F DUP4 GT PUSH1 0x1 DUP2 EQ PUSH2 0xE28 JUMPI PUSH0 DUP5 ISZERO PUSH2 0xE16 JUMPI DUP3 DUP8 ADD MLOAD SWAP1 POP JUMPDEST PUSH2 0xE20 DUP6 DUP3 PUSH2 0xDA5 JUMP JUMPDEST DUP7 SSTORE POP PUSH2 0xE87 JUMP JUMPDEST PUSH1 0x1F NOT DUP5 AND PUSH2 0xE36 DUP7 PUSH2 0xC23 JUMP JUMPDEST PUSH0 JUMPDEST DUP3 DUP2 LT ISZERO PUSH2 0xE5D JUMPI DUP5 DUP10 ADD MLOAD DUP3 SSTORE PUSH1 0x1 DUP3 ADD SWAP2 POP PUSH1 0x20 DUP6 ADD SWAP5 POP PUSH1 0x20 DUP2 ADD SWAP1 POP PUSH2 0xE38 JUMP JUMPDEST DUP7 DUP4 LT ISZERO PUSH2 0xE7A JUMPI DUP5 DUP10 ADD MLOAD PUSH2 0xE76 PUSH1 0x1F DUP10 AND DUP3 PUSH2 0xD89 JUMP JUMPDEST DUP4 SSTORE POP JUMPDEST PUSH1 0x1 PUSH1 0x2 DUP9 MUL ADD DUP9 SSTORE POP POP POP JUMPDEST POP POP POP POP POP POP JUMP JUMPDEST PUSH0 PUSH2 0xE99 DUP3 PUSH2 0x749 JUMP JUMPDEST SWAP2 POP PUSH32 0xFFFFFFFFFFFFFFFFFFFFFFFFFFFFFFFFFFFFFFFFFFFFFFFFFFFFFFFFFFFFFFFF DUP3 SUB PUSH2 0xECB JUMPI PUSH2 0xECA PUSH2 0xB69 JUMP JUMPDEST JUMPDEST PUSH1 0x1 DUP3 ADD SWAP1 POP SWAP2 SWAP1 POP JUMP INVALID LOG2 PUSH5 0x6970667358 0x22 SLT KECCAK256 0xE3 0xC4 SWAP2 DUP5 0xE9 PUSH17 0x4E0F4D464C9690148078FFBAC0EE8E98C7 CALLDATASIZE STOP DUP2 SWAP5 0xBC 0xDB PUSH11 0x801564736F6C6343000819 STOP CALLER LOG2 PUSH5 0x6970667358 0x22 SLT KECCAK256 0xAB PUSH32 0xD9EDD5EDCAD36DD14E8BB0F39762794E42010FAEC1CE26A5FBFAA44C171E6473 PUSH16 0x6C634300081900330000000000000000 "},"gasEstimates":{"creation":{"codeDepositCost":"1023400","executionCost":"1059","totalCost":"1024459"},"external":{"createCampaign(uint256)":"infinite","getDeployedCampaigns()":"infinite"}},"methodIdentifiers":{"createCampaign(uint256)":"a3303a75","getDeployedCampaigns()":"4acb9d4f"}},"storageLayout":{"storage":[{"astId":4,"contract":"Campaign.sol:CampaignFactory","label":"deployedCampaigns","offset":0,"slot":"0","type":"t_array(t_address_payable)dyn_storage"}],"types":{"t_address_payable":{"encoding":"inplace","label":"address payable","numberOfBytes":"20"},"t_array(t_address_payable)dyn_storage":{"base":"t_address_payable","encoding":"dynamic_array","label":"address payable[]","numberOfBytes":"32"}}},"userdoc":{"kind":"user","methods":{},"version":1}}